:020000040000FA
:10000000F80B002099060000410600009926000028
:10001000A3260000AD260000C1260000B726000080
:10002000000000000000000000000000F1160000C9
:100030004306000000000000B51600004506000061
:100040004706000049060000000000004B060000C3
:10005000000000004D06000000000000000000004D
:100060004F06000051060000530600005506000030
:1000700057060000590600005B0600005D06000000
:100080005F060000610600000000000000000000A4
:10009000630600006506000000000000000000008C
:1000A00067060000690600006B0600006D06000090
:1000B0006F06000071060000730600007506000060
:1000C00077060000790600007B0600007D06000030
:1000D0007F06000000000000810600000000000014
:1000E000830600000000000085060000870600006F
:1000F0000000000089060000000000008B060000E0
:100100000000000000000000000000008D0600005C
:100110008F0600000000000091060000930600001A
:100120000000000095060000000000000000000034
:1001300000000000000000000000000000000000BF
:1001400000000000000000000000000000000000AF
:1001500097060000207C0000801D00203C0000006D
:1001600000250000400C00200000000000250000D9
:10017000200C002000000000801E00202F06000040
:10018000400C002050040000200C0020080000005B
:10019000000C00200800000000015F5F000000006C
:1001A000FE070000711700000004000000000000BE
:1001B000000000000000000000000000000000003F
:1001C000A01F00200000000001015F5F030100008C
:1001D0001F0100009903000000080000000000005B
:1001E000010000000100000000000000000000000D
:1001F0007815002000000000700000009849000001
:1002000080000000000F0000010000006D040000ED
:100210000100000001015F5F040100001F010000F8
:100220007503000000050000000000000000000051
:10023000010000000000000000000000400C002051
:1002400000000000A3490000400000000507000076
:0C0250000100000061020000010000003D
:10026000F0B503680546B3F57D7FA7B007D040F22F
:10027000F532934207D06FF0850027B0F0BD00F053
:100280006FFC0020F9E700243C22214607A8CDE9B5
:100290000244CDE90444069402F015FA3C222146BA
:1002A00017A8169402F00FFAEA69019405F11C03ED
:1002B00002B30426EA6A05F12C033AB30424731E40
:1002C000012B52D8012C50D80423002168680DEB73
:1002D000030204F07CFC04281AD06FF08000CCE705
:1002E000002EE7D053F8041D3246013E0029F7D016
:1002F0001646DFE70326F5E7002CE0D053F8041D8F
:100300002246013C0029F7D01446D8E70324F5E73C
:10031000022E16D16E69402E29D806AF33463A46D2
:100320000121686804F053FC8642D6D1CDE90276FB
:1003300002A944B92246019800F024FC0446204654
:100340009BE70021F5E72B6A402BC6D816AACDE91A
:100350000423019804AA00F015FCDDE904230446F7
:100360000021686804F03BFCE9E7012085E76FF0B5
:10037000890082E70020704738B50025054C2946E2
:100380002046D4F80024C4F8045402F09CF9C4F8C0
:10039000005438BD4411002010B500F01FF9044688
:1003A00068B90121074802F053FB02F0D7FB04466D
:1003B00028B902F01FFA002818BF6FF08304204606
:1003C00010BD00BF4011002013B511460022CDE939
:1003D000002242680346302A04683ED194F82C205B
:1003E000022A18D01AB900F01BF902B010BD1E483D
:1003F0002468D0F80404013ACDE90040072A2FD838
:10040000DFE802F004090D12171C21266A4618467F
:1004100000F003F9E9E7184600F0EDF8E5E76A4671
:10042000184600F0EBF8E0E76A46184600F0E0F8FE
:10043000DBE76A46184600F0E4F8D6E76A46184655
:1004400000F0E2F8D1E76A46184600F0E0F8CCE7A1
:100450006A46184600F0DEF8C7E76FF08000C4E790
:100460006FF08500C1E700BF441100202DE9F04F77
:10047000056804469FB0002D40F0AA80202229463E
:1004800002A802F020F912AF202229460AA802F0A1
:100490001AF930222946384602F015F9E26904F1CA
:1004A0001C039846B2B10426E26A04F12C03EAB1B7
:1004B0000425EEB96FF0830630461FB0BDE8F08F1B
:1004C000002EF1D053F8041D3246013E0029F7D02A
:1004D0001646E9E70326F5E7002DEAD053F8041D98
:1004E0002A46013D0029F7D01546E2E70325F5E746
:1004F00030233A460021606804F069FB3028D9D1E6
:100500004FF00109CDE90270334F0DF1080A04F1F3
:10051000100B4E45D7F800141CD10DF128094B469D
:10052000002008EB850EC64533D108B1C7F800148A
:10053000A3683146C7F804340AAA2B4602A8FFF77D
:1005400043FF00270646BD4209F1080938D1FFF7ED
:1005500013FFB1E75BF8043FC1F58062D81C20F0BF
:100560000300904204D9FFF707FF6FF08C06A3E762
:100570000844CA19C7F8000449466068019204F0AB
:1005800026FB019ACAF80C0009F101094AF8082F64
:10059000BFE758F804CFC1F5806A0CF1030222F0DE
:1005A0000302524503F1080305D8781843E9020C09
:1005B00011440120B7E70028D5D0C7F80014D2E7CE
:1005C000394659E90223606804F009FB0137BAE7AC
:1005D0006FF0850670E700BF4411002008B528229F
:1005E0000021024802F06FF8002008BD4C150020E1
:1005F0006FF0850070476FF0850070476FF08500E1
:1006000070476FF0850070476FF0850070476FF09E
:10061000850070476FF0850070476FF08500704768
:10062000D1E9000102F07ABA0000000000000000E9
:1006300000000000000000000000000000000000BA
:10064000FEE7FEE7FEE7FEE7FEE7FEE7FEE7FEE782
:10065000FEE7FEE7FEE7FEE7FEE7FEE7FEE7FEE772
:10066000FEE7FEE7FEE7FEE7FEE7FEE7FEE7FEE762
:10067000FEE7FEE7FEE7FEE7FEE7FEE7FEE7FEE752
:10068000FEE7FEE7FEE7FEE7FEE7FEE7FEE7FEE742
:10069000FEE7FEE7FEE7FEE708B572B61E4A1F4B0F
:1006A0009A601F4B83F309881E4B83F30A8883F3F8
:1006B0000B881D4B16A1D1E90001C3E9000100F030
:1006C0004FF81A4B1A498B4212D30020194B1A4982
:1006D0008B4218D301F0A0FF186850F822405868E8
:1006E00040F82240013298688242F5D30C33EAE7A1
:1006F0000022F8E71C6844F8220001325C68A2423C
:10070000F8D30833E4E70022F8E700BFAFF3008036
:10071000A5EDF5FEA5EDF5FE0000000000ED00E002
:10072000F80B002000040020F80B0020540100000A
:100730007801000078010000980100004FF47F0369
:10074000D3F83021D3F83431072A05D1023B032BEB
:1007500002D8024AD05C704700207047A8240000ED
:10076000694A08B5D2F8D03043F00203C2F8D0305D
:10077000FFF7E4FF58B1654BD3F8202A3AB90D21B1
:10078000C3F8201A0121C3F81C19C3F81C29002240
:10079000D30003F57F03D3F80013013107D0D3F85A
:1007A00000130132D3F80433202A0B60F0D1FFF795
:1007B000C5FF002840F0A080FFF7C0FF40B1544BB8
:1007C000544AC3F830254FF050230122C3F858256E
:1007D0004FF47F03D3F83021D3F83431072A09D1FD
:1007E000023B032B06D84C4AD35C1BB100224B4B77
:1007F000C3F84C25FFF7A2FF50B14FF05023D3F8B8
:100800000024D10742BF0022C3F81421C3F81821E5
:100810004FF47F03D3F83021D3F83431072A09D1BC
:100820004FF05023D3F80024D20744BF6FF00102E9
:10083000C3F80024FFF782FF18B16522334BC3F8D9
:100840000C274FF47F03D3F83021D3F83431072A33
:1008500016D1324BD3F82034002B11DA4FF050234D
:100860000322C3F8182501229A60D3F80421002A34
:10087000FBD00022C3F804210122DA60C3F8182556
:100880004FF47F03D3F83021D3F83431072A23D132
:10089000023B032B02D8224AD35CEBB17E221B4BD6
:1008A0001B49C3F80C27C3F83C297F231D4AC2F813
:1008B00018310023C1F8043EC1F8083E01F5482173
:1008C000C1F81031C2F82431C2F82C3102F5FF1200
:1008D00002F58052C2F8A0320B4AD2F88C3043F4B1
:1008E0004063C2F88C30104A104B1168C3F84415AD
:1008F000D269C3F84C2508BD2922044BC3F80C2744
:100900000322C3F83C2757E700ED00E00040005009
:10091000009003504400EFBEA424000000200350C8
:10092000A0240000002000500080FF000060005064
:10093000003A18BF0122003918BF0121036889005D
:10094000074841EA4201186359605A6842F00102BF
:100950005A60BFF34F8FBFF36F8F0020704700BF07
:1009600004AAFF004B6830B513F01F052DD10268B3
:100970000C681068C0F30720844226D25068556086
:1009800094600C7C23F01F0304F001041C438B7C57
:10099000DB0003F018031C434B7C5B0003F00603F1
:1009A0002343D3608B68013B23F01F04CB685B00BB
:1009B00003F00E03234343F0010313615060BFF3C0
:1009C0004F8FBFF36F8F284630BD0120FCE70368CF
:1009D00000205A68C9B258609960D86018615A609E
:1009E000704770B50546002403681E68C6F30726E5
:1009F000B44201D1002070BD21462846FFF7E7FF31
:100A00000134F5E70722024BC3F80423704700BF07
:100A10000030005000231720094A03F5C07101334C
:100A2000402B42F82100F8D100231720044A03F597
:100A3000E0710133402B42F82100F8D1704700BF2C
:100A40000030005010B540F20714064A800B890BA5
:100A5000884200D910BDC3B203F5C07342F82340E9
:100A60000130F5E70030005010B540F2071400F1F6
:100A7000604001F16041064A400B490B884200D9B1
:100A800010BDC3B203F5E07342F823400130F5E72F
:100A900000300050C0F30D03C3F58043B3FA83F375
:100AA000C3F11B03064AC0F38730DBB240F4807009
:100AB00043F48073C2F80005C2F80435704700BFE4
:100AC0000030005080037047800300F57F503F30B6
:100AD0007047002070473F2070474FF480407047B8
:100AE00000F57F40C03040037047000043030148D9
:100AF00018447047FF1FF81F402070477F20704741
:100B00004FF4005070470000044BC0F30730090257
:100B100000F5007043F82010704700BF003000500F
:100B200008B501F091FC68B902F070F858B9074AAD
:100B3000D36823F008031B041B0C43F0BF6343F48A
:100B40000033D36008BD45F22350FBE700ED00E021
:100B50000020704700207047002070477047000059
:100B6000BFF34F8F0549064BCA6802F4E062134396
:100B7000CB60BFF34F8F00BFFDE700BF00ED00E08B
:100B80000400FA050346084611461BB1012B03D0A9
:100B90000320704700F014B800F042B8BFF34F8F45
:100BA0000549064BCA6802F4E0621343CB60BFF309
:100BB0004F8F00BFFDE700BF00ED00E00400FA0525
:100BC000F8B543680C2B26D14B68042B23D14FF08A
:100BD000FF3304680E6821683360E1B1A268D2B1C6
:100BE0000623012000F00FFEA8B961680B4BD3E982
:100BF000005CA9420AD3A26865448F18AF4205D8A9
:100C0000206801F07FFD00203060F8BD013004282D
:100C100003F10803EBD10220F7E700BFAC2400008A
:100C2000436870B50C2B31D14B68042B2ED14FF09B
:100C3000FF330468096820680B6048BB6268550987
:100C400003D0012D1DD14FF6FF7302F01F02D340D8
:100C5000DE0718D5A468072C15D88B23E340DB07E3
:100C600011D50C4B0C4E012D18BF334603EB8203FC
:100C7000D3F8002222F0E04242EA0472C3F80022D4
:100C800000230B6070BD4FF0FF33FAE70220F9E755
:100C90000320F7E70028845000258450FFF77EBF2B
:100CA00008B5114B83F30A88104800F0CDFE58B9FF
:100CB000FFF736FF40B9FFF74BFF28B9FFF74AFFB0
:100CC00028B1FFF749FF20B1FFF7E8FF05E0FFF784
:100CD00045FF00F04BFD01F083F800F033FD00F01C
:100CE0004DFC002008BD00BF00040020A023002010
:100CF000084B094A1B6810B55B68044619615A61C4
:100D0000D1E90223D1E90001A047044600F03CF8F4
:100D1000204610BDBC230020EDEEEEEE10B5094CD0
:100D200023685B685A69084B9A4208BF086000F064
:100D300027FC2368834203D0BDE8104001F07EB851
:100D400010BD00BFBC230020EDEEEEEE70B50546F1
:100D50000C46EFF30583C3F308030BB1FFF79EFFC7
:100D6000084B1A689368A34202D2D168A14206D206
:100D7000126821462846BDE8704000F071BC00238F
:100D80001A46F6E7A82300208230012808B506D8C5
:100D900001F0BAF918B9BDE80840FFF77FBF08BDF8
:100DA0000020704740F20110704770B5054601F011
:100DB000ABF90646284601F0EBF8044608B90020D6
:100DC00070BD01463246284601F00AF90028F6D1E6
:100DD0002368D868F4E700002DE9F04F0D469DB078
:100DE00008930446914601F08FF9684B80461B68D2
:100DF000C5F307265F68EBB207932B14A7F11C0716
:100E0000099304D56FF080001DB0BDE8F08F079BFB
:100E1000F318042BF6D8002CF4D001F085F9630008
:100E20000A90EFD514F0E00FE2B2EBD1584B53F833
:100E30002250002DE6D02B6842462946586801F022
:100E4000CFF8002840F09B80C4F30721284601F02A
:100E5000B5F804460028D5D1EFF3108872B601F03A
:100E600045F8069088F31088069B002B00F08A80D6
:100E70001C6001F023F84FEAC60B0B9002235A4680
:100E80004946F86800F0BFFC0028BBD1079B0899D1
:100E90004FEAC30A52460623F86800F0B4FC044641
:100EA0000028AFD10DF1300801462022404601F064
:100EB0000AFC2022214614A801F005FC5A464946A6
:100EC000404601F01FFC5246089914A801F01AFC94
:100ED000C146C346A246B2451DD1002301339E42FE
:100EE0003DD80DF15009079B9C423BD1089B2946F8
:100EF000CDE9044314ABCDE902630A9B0698009345
:100F00000B9A099BCDF8048001F08EF828460699CB
:100F100000F07CF978E7DBF8042002235BF8081B7B
:100F2000F86800F070FC00287FF46CAF0AF1010A49
:100F3000D1E7D2F808E0D068D9F8001070448142B7
:100F400005D2D9F8040001448E45FFF45BAF0CF1E3
:100F5000010C0832B445ECD109F10809BEE74A4654
:100F60009C46F7E7D9F80420062359F8081BF868CF
:100F700000F049FC00287FF445AF0134B3E76FF07F
:100F8000810041E76FF082003EE700BFBC230020F4
:100F90005C2800200C4B70B51B6804465D680E464B
:100FA00055F80C3C1C3D1BB1034201D1FFF776FE06
:100FB000002E05DA21462846BDE8704000F0D8B979
:100FC000A869204070BD00BFBC23002070B50E464C
:100FD000044610B1431E034201D0FFF75FFE134BDE
:100FE00030221B6831465D68062355F8100C1C3D05
:100FF00000F009FC08B1FFF751FEAB690BB9FFF730
:101000004DFEAB69234201D1FFF748FE2146284639
:1010100000F098FF38B100F114013022304601F0A1
:1010200071FB002070BD6FF08B00FBE7BC2300203C
:101030002DE9F04799461C4B0E461B689046D3F8A5
:1010400004A001F04DF8044608B9FFF727FE6369D4
:10105000002B01DAFFF722FE032E01D9FFF71EFE57
:1010600004EB86077D6ADDB106234A4641465AF8FD
:10107000100C00F0C8FB08B1FFF710FE7B6A4D466C
:10108000994528BF1D4604EBC6042A464046616CBC
:1010900001F038FB636C2B4463647B6A5B1B7B62EF
:1010A0002846BDE8F08700BFBC23002070B50E467F
:1010B000154601F015F8044608B9FFF7EFFD63691E
:1010C000002B01DAFFF7EAFD032E01D9FFF7E6FD59
:1010D00004EB8601486A58B185422A4628BF024679
:1010E00004EBC604636C801A1344636448621046C0
:1010F00070BD00002DE9F8431D461B4B0F461B68D1
:1011000090465B68A3F11C0900F0EAFF044608B9A9
:10111000FFF7C4FD6369002B01DAFFF7BFFD032F62
:1011200001D9FFF7BBFD04EBC70604EB8704636B33
:10113000B26E9B1AAB4201D2FFF7B0FD02232A46E2
:101140004146D9F80C0000F05EFB08B1FFF7A6FDA0
:10115000D6E919032A461844414601F0D3FAB36E82
:101160002B44B366BDE8F883BC230020F8B50646DF
:101170000D4600F0B5FF044608B9FFF78FFDE7689C
:101180000FB9FFF78BFD6369991C20D05A1C21D140
:10119000A5B315F1820F13D102236360EFF310861C
:1011A00072B62946204600F063F8054686F310889B
:1011B0006368022B24D1204600F0B6FE2846F8BD15
:1011C00015F1830FEAD0FFF769FD0025E6E702235A
:1011D0006360FAE7002BF6DB204600F0EFFF3B6888
:1011E0009B689B0501D50223636015F1810FD5D162
:1011F000E369002BD2DBFFF751FDCFE73546F4E77B
:1012000000236360DAE7FFF7C9BC0000F8B50D46BC
:1012100041B338B303682BB344681CB35E69EFF382
:10122000108772B6636CC1F88830A3696164334378
:10123000A3616369334209D0A16904F13400194004
:1012400000F0FAF9636923EA0603636187F3108803
:10125000064B05F11000196800F0E2F901230020A7
:101260006B60F8BD6FF08000FBE700BFBC2300207F
:1012700008B5103000F0E0F9002008BD03690268ED
:101280000B430021F0B514690361936A95681C440F
:10129000073324F0070423F00703C0E90934224B85
:1012A000416341640162C16215F40071036314BFBC
:1012B0000823D369966904BF9B000833073323F0E2
:1012C0000703E31AD468C3611C6000245C6059B949
:1012D0004FF0180C02F13004D76904EB860403F1D7
:1012E0000806B94218D1596083600023690580F867
:1012F0003930438700F11C0380F83850C36303D5AD
:1013000052680AB9094A13606FF00102BDE8F04063
:101310000749383000F054B90CFB014EDEF810E0FC
:10132000013146F804EBDCE7EDEEEEEEA8230020F9
:101330006927000038B50B4B0B4D1A680B4B28463C
:101340001A6000F05FF92B6804465B6853F8101CC4
:1013500053F81C0C00F049FA08B1FFF79FFC204637
:1013600038BD00BF901D0020BC230020A423002016
:1013700038B5EFF3108572B684690C4005D1054B82
:1013800041611968343000F04BF985F3108820462C
:1013900038BD00BFBC2300202DE9F84300F0F0F871
:1013A0001A4F04463B68A0F138065D68184B294681
:1013B0001B68012B21D000B3A5F11C08B0451CD03F
:1013C000EFF30982AB682033934201D9FFF766FC43
:1013D000EFF3108972B6F168D8F80C0000F049FB01
:1013E00038B1F16854F8380C00F0FFF908B1FFF794
:1013F00055FC61683C6089F31088064B1B6813B18B
:10140000B26802B11A602846BDE8F883BC23002008
:10141000C0230020A423002001F00C032DE9F0419B
:101420000C2B14BF054615464B0604460E4601F02C
:1014300008071AD5AB6913F8028CB7FA87F35B0972
:10144000B3EBD81F01D0FFF729FCB8F1400F24D02F
:10145000B8F1410F25D100F077FE06460146454818
:1014600000F0DEFC3046BDE8F081FFF717FCDFF846
:1014700004810FB9FFF712FCA04501D0FFF70EFC65
:10148000FFF790FC04462C6000F07AF83A4B1B689A
:101490008342E7D000F0D2FCE4E7284600F0A6FC47
:1014A000E0E7344B9C4201D0FFF7F8FBB8F1100F96
:1014B0005DD801A353F828F081140000FD1400004A
:1014C0006F150000051500006F1500006515000080
:1014D000511500006F1500001B15000029150000B4
:1014E000351500005B1500006F1500006F1500003A
:1014F0006F150000451500004B1500002868FFF728
:1015000054FCBFE7D5E90223D5E90001FFF764FCED
:1015100004462046FFF738FCB5E7D5E90223D5E9B4
:101520000001FFF785FDADE72868D5E90112FFF757
:10153000BDFDA7E7D5E90223D5E90001FFF7DAFDF4
:101540000024E6E7FFF75FFEFAE7FFF729FC99E7DB
:10155000D5E90001FFF73AFD94E7D5E90001FFF76F
:1015600005FEEDE7D5E90001FFF714FD8AE76FF00E
:10157000830488E7F80B0020BC23002041DF70477C
:10158000044B186810B14378012B00D17047806874
:10159000F8E700BFB4230020C9B20129064B41700F
:1015A00005D11A682AB101781278914201D3034A11
:1015B00010681860704700BFB4230020B8230020D3
:1015C00070B50F4D04462868134618B12278067886
:1015D00096420BD3A0602C606068002200F03AFCB9
:1015E0002046BDE870400121FFF7D6BF0546806860
:1015F00010B106789642F9D3A060AC60ECE700BF6A
:10160000B823002038B50546FFF7BAFF044600F0BE
:1016100015FC05B12C606068BDE8384000F044BCA2
:10162000022301604B70024B1A68024B1A6070472C
:10163000B8230020B423002038B5044600680D46C6
:1016400060B14378022B09D10121FFF7A5FF236880
:101650002946586800F0E8FB0023236038BD0000ED
:1016600070B572B61446EFF30B855FF0000C002ADC
:101670001FBF8CF30B886C46954683F30B880C4A8E
:101680000123136062B60E46FFF732FB72B6314695
:10169000FFF744FB5FF0000C002C1EBF8CF30B889F
:1016A000A54685F30B88024C0025256062B670BD07
:1016B000C0230020402010EA0E0017D001B5FFF72C
:1016C0006BFEBDE80440884210D072B6EFF3098289
:1016D00022E9F00F80E80440B1E804400B68B2E86A
:1016E000F00F82F3098883F30B8862B6704700001D
:1016F000EFF308807146EFF30982EFF30B830CB42C
:1017000006B4FFF789FE864606BC0CBC00F0080054
:1017100001F00801401A01DC0DDB70470CB42DE923
:10172000F00F074C254626462746A046A146A2466E
:10173000A34630B4704730BCBDE8F00F06BC70471C
:10174000A5EDF5FE084BDA6882F07F4282F47F0255
:1017500042F48042DA6000221A765A76DA76DA7734
:10176000602283F82220704700ED00E070470000FF
:1017700000F05AFE009A0A4B9A420FD10122904380
:10178000014602460346044605460646074680468D
:10179000814682468346844686460447FEE700002B
:1017A000A5EDF5FEF0B510B943F6DA30F0BD00292D
:1017B000FAD000220C2418258368C3F3802343F059
:1017C00002030B60016A8A4201D10020EEE704FBAC
:1017D00002F3D0E9067603EB870305FB06330344E7
:1017E0009B6B1B07E0D40132EDE7EFF3148381F02C
:1017F0000201C1F3400161F3000383F31488BFF3D6
:101800006F8F002070472DE9F0410E461546002AE3
:101810004AD0C4074BD480F00204C4F34004A400AF
:1018200003F00602062A4AD144F001042246294662
:10183000304602F0EDFFB8BB46E800F205EB0608C3
:10184000100E120208F1FF3747E800F34FEA136168
:1018500066D51B0264D5884262D046E800F547E8A9
:1018600000F7FFF736F92D0E85424FEA176734D39C
:10187000FFF731F9874230D82846FFF725F922468D
:10188000C6F101010144304602F0C2FF002847D0F2
:101890000135AF4218D83846FFF714F92246A8EBB5
:1018A000000102F0B5FFD8B30020BDE8F081EFF3EE
:1018B0009484A40004F0040444F01204B0E79907EF
:1018C00031D544F00804B1E72846FFF7FBF8064697
:1018D000FFF703F922460146D5E7FFF70DF98542E8
:1018E0001ED3FFF70BF987421AD82846FFF7FEF8F8
:1018F0002246C6F101010144304602F089FF78B169
:101900000135AF4203D83846FFF7EAF8C6E7284664
:10191000FFF7E6F80646FFF7F3F822460146EBE745
:101920006FF07F00C1E74CF2DA20BEE7F0B53B4C28
:1019300087B03B48FFF755F8236801255A1C0193EF
:10194000384B2260DA681B694FF44076039300231A
:10195000334801A902920495ADF814608DF8163051
:10196000FFF700F818B143F6DA3007B0F0BD23688E
:101970008DF816005A1C01932B4B294802932B4BD0
:1019800001A9CDE903352260ADF81460FEF7EAFF46
:101990000028E8D123688DF816005A1C0193244BC7
:1019A0001F480293234B01A9CDE903352260ADF80E
:1019B0001460FEF7D7FF0028D5D1022740F20116A8
:1019C00023688DF816005A1C01931B4B1448029390
:1019D0001A4B01A9226003930497ADF81460FEF737
:1019E000C1FF0028BFD123688DF816005A1C01934F
:1019F000134B0B480293134B01A92260CDE9033727
:101A0000ADF81460FEF7AEFF04460028ABD12A46BD
:101A100029460348FEF78CFF2046A6E7C423002092
:101A2000801D0020CC24000000250000A04B0000F9
:101A30004006000040060000200C0020400C002062
:101A4000000C0020200C002010B5044600F07AF8AD
:101A500000F088F810B143F6DA3010BD00F0A2F8BB
:101A60000028F8D1FFF762FF0028F4D10223236099
:101A7000F3E7884206D0830706D581F00200C0F361
:101A8000400070470020704701207047054B03EB72
:101A90008000D0F8003223F0E04343F04053C0F818
:101AA00000327047002584500020034BD8765A6AD4
:101AB00042F470225A62704700ED00E00349044B83
:101AC000CA68002092B21343CB60704700ED00E07B
:101AD0000800FA05074A084B11680020C3F84415AE
:101AE000D269C3F84C250222C3F84025C3F8482523
:101AF000704700BF0080FF000060005000224FF0E0
:101B0000FF30094B02F1A0010132102A43F82100F5
:101B1000F8D1D3F88022002022F00802C3F88022F6
:101B2000D3F88032704700BF00E100E008B5FEF74F
:101B300069FF0822024BC3F880211A60002008BD0B
:101B400000E100E0064BD3F8D02022F00102C3F8F8
:101B5000D020D3F8D02042F00202C3F8D020704742
:101B600000ED00E010B50B4CFEF754FFD4E9010185
:101B7000FEF768FF08490948FEF776FF2169E0682B
:101B80000139FEF787FF4FF478200549FEF75AFF29
:101B9000002010BDCC240000FFFF072000800020A3
:101BA000FFDF0F0010B500214FF0A040FEF7ACFFA3
:101BB00000216148FEF7A8FF00214FF05020FEF7FA
:101BC000A3FF00215D48FEF79FFF00215C48FEF760
:101BD0009BFF00215B48FEF797FF00215A48FEF764
:101BE00093FF00215948FEF78FFF00215848FEF768
:101BF0008BFF00215748FEF787FF00215648FEF76C
:101C000083FF00215548FEF77FFF00215448FEF76F
:101C10007BFF00215348FEF777FF00215248FEF773
:101C200073FF00215148FEF76FFF00215048FEF777
:101C30006BFF00214F48FEF767FF00214E48FEF77B
:101C400063FF00214D48FEF75FFF00214C48FEF77F
:101C50005BFF00214B48FEF757FF00214A48FEF783
:101C600053FF00214948FEF74FFF00214848FEF787
:101C70004BFF00214748FEF747FF00214648FEF78B
:101C800043FF00214548FEF73FFF00214448FEF78F
:101C90003BFF00214348FEF737FF00214248FEF793
:101CA00033FF00214148FEF72FFF00214048FEF797
:101CB0002BFF00213F48FEF727FF00213E48FEF79B
:101CC00023FF00213D48FEF71FFF00213C48FEF79F
:101CD0001BFF00213B48FEF717FF00213A48FEF7A3
:101CE00013FF00213948FEF70FFF00213848FEF7A7
:101CF0000BFF00213748FEF707FF01240021364A79
:101D00000846C2F88014C2F88444C2F8C014C2F86D
:101D1000C444C2F8C814C2F8CC44FFF7B7FE20464A
:101D2000FFF7B4FE2D4B0846C3F800454FF480730F
:101D3000C2F8403410BD00BF004000500080005089
:101D40000090005000A0005000B0005000C00050B3
:101D500000E0005000F00050000001500010015061
:101D600000400150005001500070015000800150AF
:101D70000090015000A0015000B0015000C001507F
:101D800000D0015000E0015000F00150000002506E
:101D9000001002500020025000300250004002505B
:101DA000006002500080025000A0025000B00250BB
:101DB00000D0025000000350003003500040035098
:101DC00000600350007003500090035000258450C1
:101DD00000288450001008500030005000100050BF
:101DE0000122014B1A607047C823002010B5044639
:101DF000094B22891B6861685868062350F8100C4B
:101E0000FFF701FD28B9054B1B68012B01D100F03C
:101E100057F90323236010BDBC230020C8230020F2
:101E200004460D46A5462847036923B119604FF0C3
:101E3000EE334361704703681962704704484FF0FE
:101E400080510160BFF34F8FBFF36F8F7047000069
:101E500004ED00E02DE9F84304461E460068114BEE
:101E60009046A268A0F1080540E902334838904244
:101E70000F4601D2FEF712FFA5F1400940220021D2
:101E8000484600F020FC4FF0807345F8043C6FF0AA
:101E9000020345E9036745F8208CC4E90093BDE8D7
:101EA000F88300BFA5EDF5FE836883F30B88036814
:101EB000203383F30988406870470000054A13689F
:101EC000013303F007031360034A0133801A03EB65
:101ED000C0007047CC230020D023002018B1024B53
:101EE000013803EBD0007047D023002010B506481E
:101EF00000F06DFA044628B18C22002100F0E3FBCB
:101F000000236360204610BDD0230020014608B5A1
:101F1000044800F06DFA00280CBF6FF0FC000020B0
:101F200008BD00BFD0230020014610B5EFF3108498
:101F300072B6034800F056FA84F3108810BD00BF53
:101F4000D0230020F0B50346EFF3108672B60024CC
:101F5000426C00F1440520466AB948B10568012C7D
:101F6000D5F888200260284602BF9A698A439A61A0
:101F700086F31088F0BDD7683F687F698F4204BF41
:101F80002846013402F18805D2F88820E4E70000F1
:101F900030B5094C024661680023084640B1056827
:101FA0006D68954205D11BB1826860609A6081605E
:101FB00030BD03468068F1E7DC28002003689A689A
:101FC000DB6812F4806F05D18B422CBF00206FF0CC
:101FD000FA0070478B420CBF00206FF0FA00704788
:101FE00038B504462AB10B689B68DB0515D500207F
:101FF00038BD0C4B1B685D681C2D01D1FEF74EFEF1
:10200000002255F81C3C99692C338A4203D053F8BE
:10201000040FA04204D19142E9D16FF0FC00E7E740
:102020000132F2E7BC2300202DE9F84A0446894634
:1020300017460021302214309B46099E0B9D00F06C
:1020400042FB00231D4AC4E903931268301D526805
:1020500004F1440C1C3AA2600D9AC4F814B0C4F800
:102060008420089AE26104F120020A998B4210D17F
:102070000023184604F1300204F164012E1DDDF83E
:1020800030C0083163450ED12368A7612362BDE8E3
:10209000F88A50F8331042F8041F56F833104CF801
:1020A00033100133E1E756F833C042F804CF55F856
:1020B00033C0013341E902C0E1E700BFBC23002087
:1020C000064B1B685B681C2B04D053F81C3C0BB1FF
:1020D000586870474FF0FF30704700BFBC230020A6
:1020E00010B5FFF7FBFE0446FFF710FF50B9FFF7EE
:1020F000E7FFE3685B681B685B68834218BF0024E6
:10210000204610BD0024FBE7064B10B51B685C6839
:102110001C2C01D1FEF7C2FD54F81C3C9868C0F39A
:10212000802010BDBC23002038B5054648B100F022
:1021300076F9B5EBD07F044601D0FEF7AFFD20461F
:1021400038BDFFF7BDFFF4E72DE9F04108238C22ED
:1021500040F28C41154800F00EF90023144E154F43
:1021600073607B6000F05EF9DFF84C80304600F071
:1021700037F80446A8B139468023424600F098F863
:102180000546204600F0F6F8206804F10C01FFF740
:1021900009FB08B1FEF782FD29462046FFF76EF8DD
:1021A000E4E7BDE8F041FFF7C5B800BFD023002049
:1021B000AC230020DC2800205C280020002330B560
:1021C00000F13002444252F8041F29B1D0F88410C3
:1021D00054F8125019444D600833202BF3D130BD10
:1021E000F8B5054608B9FEF759FD2C4E346814F1D0
:1021F000290F50D82A4B196804F128038B424AD280
:10220000D4E9063206200C3300FB0233226A02EBCB
:1022100042021344626A02EB820213449B00E318F9
:1022200001D2994201D2FEF739FD23681D4A1B0CE9
:102230001B04934201D0FEF731FD2388B3F5817F63
:1022400001D3FEF72BFD6368002B01DAFEF726FDB4
:10225000154A176807F14C031360144A1268934239
:1022600001D9FEF71BFDD4E9063206210C3301FB30
:102270000233226A3C6002EB42021344626A02EBC0
:1022800082021344326802EB83026B683260BB64E3
:102290006F603846F8BD0027FBE700BF8C1D0020AB
:1022A000F024000000005F5F881D0020EC24000087
:1022B0002DE9F04F85B0884691460746029300B15C
:1022C00009B9FEF7EBFCD7F800A0DAF818100AF10C
:1022D000300303EB81030193DAF81C40234B1D68A4
:1022E00054B10C2101FB04541C60214B1B689C421F
:1022F00001D9FEF7D3FC2C4600262546B346DAF872
:102300001C305B4500D91CB9304605B0BDE8F08FE4
:102310001822019B02FB0B310023AB604B69C5E91E
:1023200000171E438B689A0516D5B9F1000F02D02D
:10233000029A802A03D00393FEF7B0FC039B13F0AC
:10234000E00FD9B202D159F821301BB10391FEF749
:10235000A5FC039949F82150D8F804300BF1010B82
:10236000AB60C8F804500C35C9E700BF841D0020DD
:10237000E824000070472DE9F04116461D4604464A
:1023800010B30BB302F1040803FB08F707F10C02CA
:102390008A4219D1002100F096F9002004F10C03C3
:1023A0001A46014601318D42106002EB080C1046BE
:1023B00008D10020A7EB08073B44C4E90036A5601C
:1023C000BDE8F0816246EDE76FF0F800F8E70346FC
:1023D00038B1006828B102681A60002340F8043B55
:1023E0007047704702680B1F41F8042C0360704768
:1023F00000F10C02914210D343688068043300FB63
:102400000320814209D20439881AB0FBF3F203FB9E
:102410001200B0FA80F040097047002070474FF07A
:10242000FF3070477047000008B500F027F8054BF3
:10243000986000F029F880F38888BDE8084000F033
:1024400029B800BF00ED02E008B5FFF72DFB10B181
:1024500043F6DA3008BDFFF731FB0028F8D1FFF76B
:1024600039FB0028F4D162B6FFF748FB0028EFD112
:10247000FFF75CFB0028EDD0EAE70000014B18688D
:10248000704700BFCC240000014B1B6818687047E0
:10249000CC240000014B1B6858687047CC24000016
:1024A0000000000101010000010000000002FF0027
:1024B0002C0000005004FF00100000003001FF005D
:1024C00008000000200CFF00040000000080000055
:1024D00000800000FF7F0F00007C000000800000F3
:1024E00000800F00FFDF0F007C1F0020641F002012
:0424F0005C0200008A
:10250000009A1D4B9A420CD110B50FB41B48694676
:10251000FEF71CFC0FBC00F0B9F806BC96460C4652
:1025200074470FDFFEE7009A134B9A420CD110B5A7
:102530000FB413486946FEF709FC0FBC00F0A6F87B
:1025400006BC96460C4674470FDFFEE70CB4029AB1
:10255000094B9A420DD10CBC10B50FB4094869461D
:10256000FEF7F4FB0FBC00F091F806BC96460C4653
:1025700074470FDFFEE70000A5EDF5FEA50D000096
:10258000AB0D0000D90D00000348044B834202D07C
:10259000034B03B118477047701E0020701E0020C7
:1025A000000000000548064B1B1AD90F01EBA301E0
:1025B000491002D0034B03B118477047701E00202A
:1025C000701E00200000000010B5064C237843B9AF
:1025D000FFF7DAFF044B13B10448AFF30080012387
:1025E000237010BD7C1F002000000000944B0000F1
:1025F00008B5044B1BB104490448AFF30080BDE8A3
:102600000840CFE700000000801F0020944B00002E
:10261000A3F5803A704700BF174B002B08BF134B40
:102620009D46FFF7F5FF00218B460F461348144ADD
:10263000121A00F048F80E4B002B00D098470D4BB3
:10264000002B00D098470020002104000D000D4809
:10265000002802D00C48AFF3008002F051F92000AE
:102660002900FEF71DFB02F037F900BF000008004B
:102670000000000000000000F80B0020801E002079
:102680003C3700200000000000000000002383F31E
:1026900000887047FEF702BBFFF7FCFFFEE7FEF77E
:1026A000FDBAFFF7FCFFFEE7FEF7F8BAFFF7FCFF05
:1026B000FEE7FEF7F3BAFFF7FCFFFEE7FEF7EEBA20
:1026C000FFF7FCFFFEE70346F0B5C9B252B9940824
:1026D00003EB84041344A34211D1F0BD03F8011BA2
:1026E000013AF3E79C07F9D14FF0013514464D4309
:1026F000D618032CEBD9371B3D60043CF9E704F8EE
:10270000011BE8E770B504463AB141EA040313F04F
:1027100003030CD1D518032D0FD822F003031C445A
:102720001944002302F0030293420CD170BD11F84A
:10273000013B013A04F8013BE6E7CD1A2E68E51AA1
:102740002E60043BE6E75D5CE5540133ECE70000F6
:10275000034B1B685A680AB91868704701487047EC
:10276000000C002071270000FFF7F2FF0047000077
:102770002DE9F04F01251E4B8DB0D3F80090D9E91B
:1027800000329540013D1BB1984708B102F02FFA85
:102790004FF0010A4FF00041284602F010FA0026DF
:1027A000044609F10807002CF4D0D9F80430B342EC
:1027B00002D802F01CFAEDE70AFA06F814EA080F4C
:1027C00012D03B680BB902F012FA6946404602F09B
:1027D000FAF93B686846DDF804B098470146584668
:1027E00002F001FA24EA080401360437DBE700BFEF
:1027F000000C00200020704701680E4A03469142F9
:1028000015D1C169A2F11022A2F1EF1291420ED1AD
:102810008268012A0BD8C26812B101698A4206D0C7
:10282000586928B19B691B1A5842584170470120CA
:10283000704700BF55AA00FF0D4B70B59E68A6B14A
:102840003046FFF7D9FF044678B9F3686BB93569AC
:102850000DB9204670BD2846FFF7CEFF28B9EB68BA
:10286000B34202D12E462D69F2E70124F1E700BF01
:10287000E42800202DE9F041394E3468F368D4B1E2
:10288000B468C4B1002861D000295FD001FB00F515
:10289000B5FBF0F0884259D1291D57D8AA070DD0B1
:1028A00025F0030204321C4603E0616891424FD2D6
:1028B000A469002CF9D12046BDE8F0812A46F2E750
:1028C000891A232904F12007D4E9050C1AD8012319
:1028D000A360A0B1C0F818C0A36903B15861002378
:1028E000C4E905333369DB0702D5FFF7A5FFA0BBB9
:1028F0002A46002138463C46FFF7E5FEDBE7C6F8EE
:102900000CC0E9E702F1200804EB08032039C3E911
:10291000011E2169DFF84CE0DC60196144F808E031
:10292000AEF1102EAEF1EF1EC3F81CE001B1CB608A
:10293000C3E9050C40B18361996901B14B61012183
:102940002361C4E90121CAE7F360F5E70024B2E797
:10295000D4F808E0BEF1000FB2D0012001F0BCFFB6
:10296000E428002055AA00FFF8B5054600283AD013
:10297000364E3368002B36D0B268002A33D08342FB
:1029800003D872681344984202D3012001F0A4FFD7
:10299000A0F120042046FFF72FFF0028F5D155F8BD
:1029A000183C012BF1D145F8180C55E90570DFB141
:1029B000BB68CBB955F81C2C7B68203213447B6074
:1029C000386100B1C760202200212046FFF77BFE5E
:1029D000386908B183682BB333699B0703D5FFF7C8
:1029E0002BFF0028D1D1F8BD40B3836833BB4268C8
:1029F00063681344203363600369D4E905212361CC
:102A000092B9B9B9426981696261A161A2B1946167
:102A1000A26902B1546103B1DC6020220021FFF7FA
:102A200052FED9E73C46E2E79161A1690029E9D06D
:102A30004A61E7E7F160F8E7F460E9E7F36845F831
:102A4000083C03B15C61F460C6E700BFE4280020E5
:102A500038B50D461422002104461248FFF733FE14
:102A60001149124800F030F8232D1AD914F003034D
:102A70001FBF043DED18C3F10403E4182A460021EA
:102A80002046FFF720FE074B094AC3E900459C603A
:102A90002260A2F11022203DA2F1EF126560E261F6
:102AA000DC6038BDE428002069290000752800009A
:102AB00055AA00FF0020704770470000014B1B68BB
:102AC000184700BF941D0020024B1860024B0020E5
:102AD00019607047981D0020941D002010B5044611
:102AE000406A10B1A16A00F00FF9606AFFF7E6FFD3
:102AF0000020C4E9090010BD38B50446FFF7EEFF19
:102B0000236A2C22012B0CBF05466FF0960500218D
:102B10002046FFF7D8FD284638BD0000054B0A4681
:102B20001978C90703D50146181D00F05CB86FF08D
:102B300088007047F828002010B5074C00F038F8DE
:102B4000204600F061F8201F082100F0DDF8BDE804
:102B5000104000F045B800BFFC28002038B50D4DEE
:102B60002B78DB0710D4281D00F03BF8044670B921
:102B700000F012F8044650B900F030F8044630B9BD
:102B80002B7843F001032B700024204638BDFFF75B
:102B9000D3FFFAE7F8280020044A002092F8803595
:102BA00043F0010382F88035704700BF0029002000
:102BB000F8B5094C20252646012720462762FFF755
:102BC0009BFF013D04F12C04F7D196F8803565F3A5
:102BD000000386F88035F8BD0029002000207047EA
:102BE00070470020704713B5002001AB144600F079
:102BF0005FF830B9019BA34218BF6FF0930002B099
:102C000010BD6FF09200FAE70020704710B50C4C31
:102C1000236813B10B4B1B682BB900F093FC30B940
:102C20000122084B1A6001232360002010BD0138E7
:102C3000072801D9044810BD044B53F8200010BDEB
:102C4000882E0020842E0020FE8FFFFFB849000050
:102C5000144B2DE9F043002814BF04461C46124FC4
:102C6000236883B0BB4219D016460D4620464FF468
:102C7000147104F1040900F047F804F58E78484611
:102C800000F040FB404600F0CDF82B464A46404657
:102C90000649009600F0E8F908B92760002003B063
:102CA000BDE8F0838C2E0020A5BCC95A89330000F2
:102CB00070B50D4C1D46002814BF064626460B4B2A
:102CC000306882B098420DD106F58E7000263346EA
:102CD0000096144600F0F2F9002818BF34462C6024
:102CE00002B070BD0248FBE78C2E0020A5BCC95A7B
:102CF000E88FFFFF38B131B10022014403460130B3
:102D000081421A70FAD1704738B131B100220144C2
:102D10000346013088421A70FAD1704770B590B0FE
:102D200000287AD03E4C0D464022362106462046E9
:102D3000FFF7C9FC40225C21A018FFF7C4FC2B1D43
:102D4000A34203D904F144039D4252D32B68226865
:102D5000534023602B68226C534023646B68626885
:102D6000534063606B68626C53406364AB68A268F5
:102D70005340A360AB68A26C5340A364EB68E26865
:102D80005340E360EB68E26C5340E3642B692269D3
:102D900053402361226D2B695340236562696B693F
:102DA000534063616B69626D53406365AB69A269AF
:102DB0005340A361AB69A26D5340A365EB69E2691F
:102DC0005340E361EB69E26D5340E3650021304617
:102DD00001F0E0F8044628B940223046104901F0DD
:102DE000EDF8044640216846FFF78EFF204610B0FC
:102DF00070BD631E04F13F01013D1F3415F8010F42
:102E000013F8012F42401A7011F8012F2878A342BD
:102E100082EA00020A70F1D1D8E76FF07304E5E7A7
:102E2000DC30002010B54FF49A7200210446FFF701
:102E30004AFC42F21072044BC4F8202104F596704B
:102E40001B68BDE810401847B81D00202DE9F04F61
:102E500004468846914695B0002900F0A780002AD4
:102E60000CBF0126022600238DF80C30002C00F048
:102E70009F80DFF844A104AF0AF1400B00212046F7
:102E800001F088F8034648B1384620210193FFF746
:102E90003BFF019B184615B0BDE8F08F402251461C
:102EA000204601F08BF803460028EDD104F1F4052B
:102EB00020222946204601F081F803460028E3D16C
:102EC0000122204603A901F079F803460028DBD14E
:102ED000022E62D020460CA901F09AF80346002881
:102EE000D2D10146204601F055F803460028CBD147
:102EF00040225946204601F061F803460028C3D11C
:102F0000202220460CA901F059F803460028BBD125
:102F10003946204601F07CF803460028B4D13946F2
:102F20002046FFF7FBFE03460028ADD120222946AC
:102F3000204601F043F803460028A5D120460CA9FD
:102F400001F066F8034600289ED10146204601F0B4
:102F500021F80346002897D140225946204601F027
:102F60002DF8034600288FD1202220460CA901F01D
:102F700025F80346002887D12946204601F048F865
:102F80000346002880D19DF80C200132D2B2B24213
:102F90008DF80C20FFF472AF76E74A464146204692
:102FA00001F00CF80346002894D06DE701265AE79B
:102FB0006FF0730304AF67E7DC3000202DE9F041C8
:102FC0000446884615461F46D0F81801E0B013B1F4
:102FD00000EB40004008B5F5807F3ED82844B0F5AE
:102FE000C07F3AD84FF4C07200216846FFF76BFBF0
:102FF0006946D4F82431D4F81821D4F82801984728
:1030000070BBD4F8186157B1D4E9493072080DEBA0
:103010000601984720BBD4F8183106EB5306B8F1E7
:10302000000F00D08DB9324669462046FFF70EFFEB
:10303000054610B90123C4F8143131466846FFF73C
:1030400063FE284660B0BDE8F0810DEB0600414606
:103050002A462E44FFF756FBE5E76FF00405F0E73C
:103060006FF00805EDE700BF2DE9F047044604F1D5
:10307000F4050F4691461E46DDF8208000F070FFF3
:1030800029462046FFF74AFE08B1BDE8F0872846EA
:1030900020220121FFF717FBD4F81831C4F824715E
:1030A000C4F8289113B92023C4F818314246314698
:1030B0002046BDE8F0470123FFF780BFB2F5806FDF
:1030C00000F295802DE9F04F89B09A46129BB3F536
:1030D000807F00F29080D0F82431164604460F46D7
:1030E0004BB3D0F81C31012B05D0D0F81421D0F807
:1030F00020319A421FDD514600232046129AFFF7E5
:103100005DFF014698B900231293002E5ED0DFF8D0
:10311000EC9009F1400B0021204600F03BFF202EEF
:103120003546014628BF202504F1F40890B1084631
:1031300009B0BDE8F08FBAF1000FE6D0129B002B6A
:10314000E1D051461A462046FFF780FE014600288E
:10315000DBD0ECE749464022204600F02FFF014635
:103160000028E4D141462022204600F027FF0146F6
:103170000028DCD16946204600F04AFF01460028BD
:10318000D5D1204600F006FF01460028CFD1594690
:103190004022204600F012FF01460028C7D16946B0
:1031A0002022204600F00AFF01460028BFD14146F8
:1031B000204600F02DFF01460028B8D138462A46A7
:1031C0004146FFF79FFA761B2F44A4D15146204673
:1031D000129AFFF73BFE01460028A8D10846D4F812
:1031E00014310133C4F8143109B0BDE8F08F6FF029
:1031F0000201084670476FF0040198E7DC300020B8
:103200002DE9F043202B1D460646884691468BB09B
:1032100026D8DBB202AF8DF80480B04658F8041B04
:103220008DF8053021B9404600F0B4FE044640B99F
:10323000012302224046336001A900F0BFFE04468C
:1032400038B138462021FFF75FFD20460BB0BDE8BE
:10325000F0832A464946404600F0B0FE0446F0E7B7
:1032600002AF1946104600233A4601F02DF80446F5
:103270000028E6D12023B9461D46CCE72DE9F041D0
:10328000D0F8F830A6B0002BD8BF02AE31DD05462D
:103290000027D0F80C4102AEA4F101089022D5F825
:1032A000FC403146D0F8000101AB0197B8FA88F82C
:1032B000A0474FEA5818044620B9019B53B9B8F10A
:1032C000000F16D030469021FFF71EFD204626B095
:1032D000BDE8F081014632462846FFF791FF58B914
:1032E000D5F80431019A1344C5F80431B8F1000F40
:1032F000E8D16FF03C04E5E70446204626B0BDE87F
:10330000F08100BF70B500250446142204F58876CC
:103310002946C0F8F850FC30FFF7D5F908222946B5
:103320003046FFF7D0F9144B30461B6898472046CB
:1033300040F8045B00F014FE104B30461B689847C1
:10334000C8B9D4F8F830AB420FDC03EB830204EBCE
:1033500082022021C2F800010120C2E9421008497E
:103360000133C2F8FC10C4F8F830064B3046BDE813
:1033700070401B68184770BDB81D0020B41D0020A8
:103380005D3E0000B01D00202DE9F047202A88B0E6
:103390007AD83F4B00F5887904461B6848461746A3
:1033A000884698470546F8B940F20116D4F8F83037
:1033B000002B65D02046FFF761FF054638B9D4F8E9
:1033C000F830002B14DC013EF2D16FF03B056E4665
:1033D00020213046FFF798FC2E4B48461B68984743
:1033E000002818BF6FF01D05284608B0BDE8F0871B
:1033F000D4E94132934203D3D4F80C21012A02D0FC
:10340000013ED7D1E1E71F2BFAD96E4601462022B3
:10341000304604F1040AFFF756F93146504600F0F1
:10342000F7FD05460028D3D1504600F0ADFD5046CB
:1034300000F096FD2946504600F0ACFD05460028F8
:10344000C6D150462022314600F0B8FD054600287E
:10345000BED1034632462021304600F035FF0546F6
:103460000028B5D1D4F8F8303A46002BC8BF002365
:1034700040463146C8BFC4F80431FFF743F9A7E717
:103480006FF03F056E46A3E76FF03B05ACE700BF6A
:10349000B41D0020B01D0020002130B58DB02822C1
:1034A00002A80191FFF70FF902A800F035FF0446CA
:1034B00010B120460DB030BD1B4D4FF0FF312868D4
:1034C00000F032F960BB194BD3F8340E10F0010054
:1034D00017D100F059F9F8B9154A02A901A800F06E
:1034E000AFFC0446012000F04FF988B9286800F0CD
:1034F00023F90028DDD00F4800F0ACF920460DB0CC
:1035000030BD2868052400F017F90028D1D0F2E773
:10351000094800F09FF9E9E7084800F09BF9DBE76C
:10352000074800F097F9CEE79C1D0020006084500A
:103530005C310020304A0000104A0000F0490000D1
:10354000D849000030B583B000F036F878B900F003
:1035500055F890B9144BC3F80C0AFFF79DFF0446C9
:10356000F8B9124D2B6863B1204603B030BD032477
:1035700000F072F8204603B030BD0424204603B0AA
:1035800030BD02460146FFF763FB50B96822084987
:1035900001ABFFF78DFB20B92046064B2B6003B033
:1035A00030BD0524E0E700BF005084507C3300208C
:1035B000803300205AEA5A5A00207047430504D548
:1035C0004FF0FF32034BC3F80821024BC3F8080A3F
:1035D000704700BF00508450014BC3F8040A704785
:1035E0000050845008B100F071B84FF47500704776
:1035F00008B100F04FB84FF47500704710B511488E
:1036000000F07EF800B110BD0F4800F079F80028F6
:10361000F9D10E4C204600F073F80028F3D10C4B82
:103620000C481C6000F06CF801460028EBD100F05B
:103630002DF8044608B1204610BD00F087F820465A
:10364000FAE700BFAC1D0020A81D0020A41D00202B
:103650009C1D0020A01D002008B5084800F05AF865
:10366000074800F057F8074800F054F8064800F003
:1036700051F8BDE8084000F00BB800BFAC1D0020B9
:10368000A81D0020A41D0020A01D002000207047C0
:10369000704700BF10B402460B4C01E0134207D143
:1036A000D4F8003A13F48070F8D0012042F480720C
:1036B00029B1054BD3F804410C60C3F80841024B13
:1036C000C3F8082A10BC70470050845002460849CD
:1036D00001E01A4207D1D1F8003A13F48070F8D013
:1036E000012042F48072024BC3F8082A704700BFE1
:1036F0000050845001F028B90A460021FEF7E3BFCC
:1037000008B5034B02681B6810689847002008BD85
:10371000D81D002008B5034B02685B681068984705
:10372000002008BDD81D0020024B02689B6810686D
:10373000184700BFD81D002008B5034B0268DB689E
:1037400010689847002008BDD81D002070B5094CAE
:10375000094D2069AB68984718B1084B08485B6869
:1037600098470021074AEB6811602069BDE8704066
:10377000184700BFC41D0020D81D0020BC1D00201C
:10378000484A0000E8330020F8B51A4D1A4E0446A6
:10379000B26828699047E8B9184F3B684CB1A3B1AB
:1037A000012B19D0013B3B602869F3689847002042
:1037B000F8BD43B90121124AC2F800151149D1F8E8
:1037C0001029002AFBD101333B60F3682869984730
:1037D0000020F8BD0C48F8BD0A4AD2F81039002B79
:1037E000FBD1074A6FF07E40C2F80035FFF7F4FEC8
:1037F0003B68D7E7C41D0020D81D0020E833002017
:103800000040845000508450E98FFFFF014B1B683B
:10381000184700BFD81D0020014B9B68184700BF08
:10382000D81D0020014BDB68184700BFD81D0020C1
:10383000BFF34F8F0549064BCA6802F4E062134399
:10384000CB60BFF34F8F00BFFDE700BF00ED00E08E
:103850000400FA0530B44FF0FE3200250B4B0C4C3F
:103860000C494968C3F80024C3F80424C3F80824A9
:10387000C3F80C24C3F81024C3F81424C3F8182484
:10388000C3F81C24C4F8005530BC084700508450CD
:1038900000408450BC1D002010B5044650B1636840
:1038A00013F0685F05D0064A934202D0002362609D
:1038B000236010BD034B04485B689847EFE700BFE7
:1038C0002C5F5CA9BC1D0020684A0000C8B1436899
:1038D0000D4A934213D013F0685F0ED0012350E8D5
:1038E000002F194640E8001C9CF0000FF7D1012A78
:1038F000F5D0BFF35F8F002070470448704704483D
:1039000070476FF4E04070472C5F5CA9E98FFFFFC0
:10391000EA8FFFFF034680B1426809498A420AD014
:1039200012F0685F05D0BFF35F8F002210461A6067
:10393000704704487047044870476FF4E040704790
:103940002C5F5CA9E98FFFFFEA8FFFFF10B50446EB
:1039500020B10023034A2360626010BD0248FFF7D4
:1039600079FFF6E73A00003A904A00002DE9F0416D
:10397000002873D00C46002970D01D46002B6DD056
:1039800007461AB1012200232A6003602B68002B2E
:103990005FD02946204600F079FD804600285AD1A4
:1039A0002146286800F058FD8046002853D1286839
:1039B000082867D0042867D0A0F10200B0FA80F090
:1039C00040090121314EC6F8C411C6F84011C6F8AD
:1039D000C411636AC6F83031D6F830219342F6D16B
:1039E0000023C6F82C314FF0FF33C6F808316FF0D2
:1039F0001B03C6F80031C6F80C01D6F8040A40F4DF
:103A00008060FFF7E9FD0A23C6F83831069B012BD9
:103A100029D023691E4AA2FB03231B09626A404680
:103A200002FB03F303EB4303184ADB039B09C2F8D1
:103A3000D8310123C2F82C313B682A6823F07F4338
:103A400043EA02633B602A6843EA02233B60BDE825
:103A5000F081DFF840804046BDE8F081DFF8388033
:103A60004046BDE8F0814FF47F03D3F80C2C0132BF
:103A700006D0D3F80C3C064AA2FB03231B09CDE772
:103A80001623CBE703209CE702209AE700508450DE
:103A9000ABAAAAAA310CF100350CF10058B34B1EA9
:103AA000B3F5047F27D230B54FF0000ECD00744639
:103AB00071464B0901F01F0C50F82330BCF11F0F69
:103AC00023FA0CF306D003F0010319B901211C46B7
:103AD0008E46EEE79C4201F1010106D01C464FF0F4
:103AE000010EA942E5D1002030BD0EF1010E964530
:103AF000F7D1024830BD0148704700BF360CF100D5
:103B0000C0B32DE9F0434C1EB4F5047F1DD2E3B1E0
:103B1000DAB100252E46A8462C46CF0003F1FF3926
:103B20004FEA541C04F01F0E50F82C10BEF11F0F6A
:103B300021FA0EFC0CD00CF0010C4CB90126E04629
:103B400034463546ECE7964216D90C48BDE8F0837A
:103B5000AB420BD0C44508BF0136A945F3D00135AF
:103B60000134BC42DCD10020BDE8F0830125E046F1
:103B70002E46F5E7014870471D46F1E7370CF10086
:103B80002DE9F04F8FB08246DDE919460D46002E33
:103B90006ED1096904911C60002318990B60002AFA
:103BA00000F02881994B6A6AD3F83811D3F8303184
:103BB0009A4269D10A2967D19AF80330069304F131
:103BC000080305930423049A0393914B8F4CA3FBA2
:103BD000023B4FEA9B0B0BEB4B0BA2EB4B0B189BE7
:103BE000049E1E60002E00F0E580002700F05EFCC1
:103BF0000797BAF1000F00F0D0804FF00109DDF80F
:103C00001480002D00F0C980069B002B3ED0284672
:103C100006A900F03BFC00283AD07E4B984220D009
:103C2000069B082B00F0E08000225B0006932946EB
:103C300006AB50460092FFF799FE774B984200F092
:103C4000CF8070B9DAF80020130A03F47F0313431E
:103C500023F07F43CAF80030039B013B0393BED19E
:103C60000020039000F022FC03980FB0BDE8F08F15
:103C70004FF47F01D1F80C0C01300CBF4FF40471EC
:103C8000D1F80C1C049186E76448EAE76248C4E76F
:103C90002946069800F0E0FB0028BED1069B082BC1
:103CA00000F0A480042B00F0A380A3F10203B3FA78
:103CB00083F35B09C4F8C491C4F84091C4F8C4917B
:103CC0006A6AC4F83021D4F830118A42F6D1002251
:103CD000C4F82C214FF0FF32C4F808216FF01B020A
:103CE000C4F80021C4F80C31D4F8040A40F4806010
:103CF000FFF772FC0A23C4F838312B69444AA2FB4F
:103D00000313696A1B0901FB03F303EB4303DB03A2
:103D10009B09C4F8D831C4F82C910698DAF8003021
:103D200023F07F41030243EA00630B43CAF80030EB
:103D300007A800F081FB079B354A03F01A030343F1
:103D40007FF46EAFA2FB0632D4F81431B7EB920FBA
:103D50000893D4F818310993D4F81C310A93D4F895
:103D600020310B93D4F824310C93D4F828310D93DF
:103D700002D1BBF1000F12D14046182208A9183E0B
:103D8000FFF7B8FC08F1180801379EB100F08EFB70
:103D900000230793002D7FF437AF21483DE74046CD
:103DA0005A4608A9A6EB0B06FFF7A4FCD844013736
:103DB000002EEBD1049F059E6A6939463046FFF715
:103DC0006DFEAA6940B94FF4806339463046FFF76B
:103DD00097FE00283FF444AF0023189A13601CE7B5
:103DE0002B6A002B3FF43DAF0E483AE7032361E70F
:103DF00002235FE7012229465046009606ABFFF7F3
:103E0000B5FD00283FF4DBAE2BE700BF0050845027
:103E1000ABAAAAAA020CF100310CF100300CF1009F
:103E2000350CF100320CF10010B4DDE901340194DD
:103E30000024DDF80CC0CDE902C410BCFFF7A0BE21
:103E400030B51546012487B005AB00930022CDE9BB
:103E5000015404ABFFF794FE07B030BDF0B587B056
:103E6000002967D01E46002B64D01446002A61D07A
:103E7000324F0D4638684FF0FF31FFF755FC0028F0
:103E80003DD12F4BD3F8340E10F0010015D04FF078
:103E9000FF354FF408712B48FEF72CFF04212A4808
:103EA000FEF728FF29482821FEF724FF3868FFF78E
:103EB00043FC40BB284607B0F0BDFFF765FC002877
:103EC00034D1224800F028FA70B91E4A0346029203
:103ED00005AA019204AA039000921C4902461A48BE
:103EE000FFF7A2FF0346A0B14FF0FF350120FFF717
:103EF0004BFC0028CDD01648FFF7ACFCC9E71548AD
:103F0000FFF7A8FCBDE71448FFF7A4FC284607B05C
:103F1000F0BD28461D46059B22469C4228BF1A46F6
:103F2000049932600831FFF7E5FBDFE70B48FFF744
:103F300091FCC6E74FF0FF35BCE700BF9C1D002099
:103F40000060845028340020FC330020003400201E
:103F5000104A0000D8490000B44A0000F0490000AF
:103F600010B5044628B12046BDE81040F421FFF703
:103F7000C3BB0448FFF76EFC2046BDE81040F421A7
:103F8000FFF7BABBCC4A000010B1F421FEF7B2BE75
:103F9000704700BF08B521B1012908D06FF0360085
:103FA00008BD012100F058F80028F7D108BD022112
:103FB00000F052F80028F9D0F0E700BF30B5054610
:103FC0008818B0F5801F0B461446A1B001D8802A8E
:103FD0000CD9B3F5801F17D922461946284600F0A0
:103FE0007DF8044684B9204621B030BD6846FFF70D
:103FF00081FB22466946284600F070F8802104467D
:104000006846FFF779FBEDE76FF03604EBE700BF9A
:1040100070B5E8B10E46D9B1044600F031F8054656
:10402000B0B92368012B0BD0022B01D0284670BDFC
:104030001C22304604F10801FFF75CFB284670BDE6
:104040002022304604F10801FFF754FB284670BDDA
:104050006FF03605EAE700BF78B138B50D46F021BC
:104060000446FFF749FB402320462560E36500F046
:1040700061FA003818BF012038BD0120704700BF29
:10408000F0B5056EA5B0044604AEE5B900230127DE
:10409000019330466760294602AA009300F018FA9F
:1040A00010B1012025B0F0BD2A46204602A900F03B
:1040B00069FA0028F5D1204600F06CFB0028F0D109
:1040C000206625B0F0BD802D2A46304628BF8022CC
:1040D00004F16401FFF70EFB256ED7E7002800F01E
:1040E000AE802DE9F04F1446A5B0002A3DD00F4612
:1040F000002949D0B2F5803F0546006E20D34FF627
:10410000FF7805F1640AEB6D1A1AB2FBF3F103FBB9
:104110001122002A65D18342B9464FF6FF7672D04C
:10412000B6FBF3FB03FB0BFBBBF1000F30D1002E02
:1041300045D1A4F57F44FF3CB4F5803F4744E2D22B
:10414000EA6D161AB6FBF2F302FB1366A64228BF0D
:104150002646002E75D1824200F08D80B4FBF2F627
:1041600002FB06F62EB9002C79D1002025B0BDE85F
:10417000F08F002331463846CDE9003302AA00F023
:10418000A7F9002800F09580012025B0BDE8F08F48
:10419000002359464846CDE9003302AA00F098F9B9
:1041A0000028F1D15A46284602A900F0EBF9002870
:1041B000EAD1A6EB0B06286ED944002EB9D01930EF
:1041C0004946324605EB8000FFF794FAA4F57F4498
:1041D000286EFF3C3044B4F5803F4744286692D2B5
:1041E000AEE7424528BF4246164639465044FFF7DF
:1041F00081FA286EEB6D3044834207EB060928668E
:10420000A8EB06068CD1802B28BF802351461A4686
:1042100004A8FFF76FFA0023E96D02AACDE9003385
:1042200004A800F055F90028AED12846EA6D02A98D
:1042300000F0A8F90028A7D1EB6D286670E70120EF
:10424000704705F16403394632461844FFF752FAC5
:10425000286EEA6D3044A41B374428667BE72B6E3A
:104260002246193305EB83003946FFF743FA2B6EDC
:1042700023442B6679E7802A28BF802205F1640158
:1042800004A8FFF737FA0023E96D04A8CDE900334D
:1042900002AA00F01DF900287FF476AF2846EA6DE7
:1042A00002A900F06FF900287FF46EAFEA6D28666E
:1042B00054E73246284602A900F064F900287FF44A
:1042C00063AF3744A41B4EE7F8B51C4605461148BA
:1042D00016460F46FFF744FE21460E48FFF75AFEEA
:1042E000044620B10B48FFF74FFE2046F8BD3A4682
:1042F00029460848FFF762FE04460028F2D13146FD
:104300000448FFF785FE04460248FFF73DFE2046BD
:10431000F8BD00BF483600201C2370B582B001A94B
:104320000546019300F032F8044638B9019B1C2B76
:1043300007D0144C1C212846FFF7DEF9204602B0B6
:1043400070BDD5E90112131E18BF0123003918BF33
:104350000121012628689B00EA6843EA41030028FE
:1043600018BF43F00103EE612AB9C5E90834002BF8
:10437000E4D1054CDEE7204643F00803C5E90834E4
:1043800002B070BD370CF0000E0CF000034618B1FF
:1043900011B10A681C2A01D0012070474FF47F0236
:1043A000D2F8101C01310CBF40F2DC51D2F8101CC5
:1043B0004FF47F020160D2F8141C01310CBF40F2AF
:1043C000DC51D2F8141C4FF47F024160D2F8181C63
:1043D00001310CBF40F63401D2F8181C4FF47F02B3
:1043E0008160D2F81C1C01310CBF40F63401D2F8B8
:1043F0001C1C4FF47F02C160D2F8001C01310CBFBD
:104400009021D2F8001C4FF47F020161D2F8041C05
:1044100001310CBF5121D2F8041C4FF47F024161DD
:10442000D2F8081C002001310CBF40F23732D2F81C
:10443000082C9A61704700BF014608B54FF48060B0
:10444000FFF7D6F80022034BC3F8C821C3F82C218C
:1044500008BD00BF005084500138072805D8DFE8A8
:1044600000F0100E040A0404040607487047CB68E5
:1044700000204B6270478B6800204B6270474B688E
:10448000F6E70B68F4E700BF310CF1000B6802E0BF
:10449000082B0B6006D8026A13424FEA4303F7D099
:1044A0000020704700487047310CF100002310B520
:1044B000064C4FF48060C4F82C31C4F8C431FFF7C7
:1044C0007DF84FF0FF33C4F8083110BD0050845020
:1044D0002DE9F041002482B015461E4601220DF15F
:1044E00007030746DDF824808DF8074000F08CF9BB
:1044F000D0B99DF8073004462F602B71B8F1000F3A
:104500000ED04EB10246089930460DF1070300F077
:104510007BF948B99DF80730C8F8006088F8043086
:10452000204602B0BDE8F0814FF47504204602B089
:10453000BDE8F081D8B108B50368012B04D0022B87
:104540000FD043B10B4808BD20220B490830FFF7BC
:10455000D1F8002008BD142208490830FFF7CAF836
:10456000F7E7202206490830FFF7C4F8F1E74FF4D7
:10457000730070470100F300DC4A00001C4B000090
:10458000FC4A00002DE9F047002900F0EB800446CA
:10459000002800F0EB80036888469146002B00F06D
:1045A000B580013B012B00F2C9804FF0FF3171480B
:1045B0004FF0020AFFF7B8F8002840F0B180002061
:1045C000FFF7E2F80746002840F0B4806A4DD5F8BE
:1045D0001069002EFBD14FF0FF30FEF7EFFFD5F84A
:1045E000040A20F40060FEF7F7FF01230722C5F854
:1045F0001838C5F82038C5F80029C5F8C437C5F8FB
:10460000A466A36CC5F8CC37E36CC5F8D037C5F801
:10461000C0A723685BB1013B012B18D8636AC5F8BA
:104620005C36236AC5F85836E369C5F85436A26982
:10463000514BC3F850266269C3F84C262269C3F86F
:104640004826E268C3F84426A268C3F84026B9F1B8
:10465000000F56D063684FF40060012B04BF464A38
:10466000C2F8843698F80430D8F80010424A5B004B
:1046700003F00203C2F80C3BC2F8281CC2F82C9CC1
:10468000FEF7B0FF0746236863B1013B012B19D841
:10469000394BD3F85C266262D3F858262262D3F8ED
:1046A0005436E361344BD3F85026A261D3F84C263C
:1046B0006261D3F848262261D3F84426E260D3F839
:1046C0004036A360002201212B4BD3F8CC07A06415
:1046D000D3F8D007E064C3F8C417C3F88426C3F83E
:1046E000C827C3F81828C3F82028AFBB0120FFF75C
:1046F0004BF868BB1F48FFF71FF818BB3846BDE8EA
:10470000F08704221C4BC3F8C827BCE74FF0FF31E9
:1047100018484FF0010AFFF707F800283FF44FAFA1
:104720001648FFF797F80020FFF72EF807460028F5
:104730003FF44CAF1248FFF78DF847E7114F38466A
:10474000BDE8F0871048FFF785F83846BDE8F087E8
:104750000E48FFF77FF8CDE7102104F10800FEF7BF
:10476000CBFFC3E70A4F3846BDE8F0874FF4730725
:10477000C4E700BFAC1D002000508450D8490000A1
:10478000F04900000100F300304A0000104A000028
:104790000300F300A0B3034670B4D0E90240D3E9AC
:1047A000041226BA05BA0CBA10BAC3E90440D3E918
:1047B0000612986A09BAC3E9026512BA996100BA89
:1047C000D3E9084125BA0CBAC3E90725D3E90B128E
:1047D000C3E9094009BAD86B12BAD962D3E90D41CD
:1047E00025BAC3E90C250CBA00BAD3E9101209BAEC
:1047F00012BAC3E90E40196400205A6470BC7047B5
:104800004FF47300704700BF00201870704700BF5E
:10481000431810B501D21F2A01D9002010BD01395B
:1048200002F014030144102B80EA01043CD009DC9F
:104830008BB1042BF1D11F2C40E840F315D941E88E
:1048400040F10EE0142BE8D11F2C40E8C0F30CD946
:1048500041E8C0F105E01F2C40E800F305D941E82C
:1048600000F11C460B468C42D7D122F01402013ACB
:104870000A2AD2D801A151F822F000BFCB4800008B
:10488000C5480000B74800001B4800001B48000056
:104890001B4800001B480000D1480000CB48000026
:1048A000BF480000B74800001F2C40E880F3DCD967
:1048B00041E880F1D5E713F4001FAFD1ADE713F461
:1048C000801FFAE75B02A9D5A7E713F4002FF4E7EE
:1048D00013F4802FF1E700BF08B5074B044613B16E
:1048E0000021AFF30080054B1868836A03B1984735
:1048F000204600F043F800BF00000000304B0000ED
:1049000070B50D4D00260D4C641BA410A64209D1B4
:104910000B4D00260B4C00F033F8641BA410A6428C
:1049200005D170BD55F8043B01369847EEE755F8C0
:10493000043B01369847F2E7681E0020681E0020FD
:10494000681E00206C1E0020884210B501EB020496
:1049500002D98442234607D8431EA14208D011F849
:10496000012B03F8012FF8E7024401468A4200D1E7
:1049700010BD13F8014D02F8014DF7E7FEE700BF47
:10498000F8B500BFF8BC08BC9E467047F8B500BF3C
:10499000F8BC08BC9E46704754464D5F4352595080
:1049A000544F0054464D5F504C4154464F524D5F5A
:1049B0005345525649434500FF8FFFFFFF8FFFFFCE
:1049C000FE8FFFFFFE8FFFFFFD8FFFFFFC8FFFFFBE
:1049D000FC8FFFFFFB8FFFFF4661696C20746F2027
:1049E00061637175697265206D757465780A000080
:1049F0004661696C20746F20696E637265617365CE
:104A000020504D20636F756E7465720A00000000BF
:104A10004661696C20746F206465637265617365BB
:104A200020504D20636F756E7465720A000000009F
:104A30004661696C20746F2072656C6561736520D6
:104A40006D757465780A0000436F756C64206E6F35
:104A500074206C6F636B20706F7765722073617662
:104A600065206D75746578006D757465785F667224
:104A700065652063616C6C65642077697468204E9D
:104A8000554C4C20706172616D6574657200000058
:104A900043616E277420696E697469616C697A6517
:104AA000206D757465782C20776173204E554C4CC1
:104AB0000D0A00004661696C20746F20756E6C6F82
:104AC000636B206D757465780A0000000A63747862
:104AD000206973204E554C4C0A00000067E6096AB5
:104AE00085AE67BB72F36E3C3AF54FA57F520E510F
:104AF0008C68059BABD9831F19CDE05BD89E05C19F
:104B000007D57C3617DD703039590EF7310BC0FFF1
:104B100011155868A78FF964A44FFABE01234567A1
:104B200089ABCDEFFEDCBA9876543210F0E1D2C3F7
:104B3000081E00200000000000000000000000002F
:104B40000000000000000000000000000000000065
:104B50000000000000000000000000000000000055
:104B60000000000000000000000000000000000045
:104B70000000000000000000000000000000000035
:104B80000000000000000000000000000000000025
:104B90000000000000000000000000000000000015
:104BA000FCF7D4F81FBD1FB515486946F8E71FB5D7
:104BB00014486946F4E71FB513486946F0E71FB586
:104BC00012486946ECE71FB511486946E8E71FB58A
:104BD00010486946E4E71FB50F486946E0E71FB58E
:104BE0000E486946DCE71FB50D486946D8E71FB592
:104BF0000C486946D4E71FB50B486946D0E700006A
:104C0000A50D0000AB0D0000D90D0000950F0000B0
:104C1000CD0F000031100000AD100000F5100000B5
:104C20006D11000007120000A10D0000E4D9FF7F04
:044C3000010000007F
:107C00007FE97FE9FAF77CBC7FE97FE9FAF78BBC73
:107C10007FE97FE9FAF79ABC00000000000000004D
:107C200090ED00E0641F0020801E002098010000FD
:107C3000000C0020B92A0000B52A0000A41D002075
:107C4000D41D0020CC1D0020C81D0020C41D002014
:107C500025380000193800000D3800000000000031
:107C600031380000001E0020F81D0020F01D00200B
:107C700000000000E81D00204D3900009938000088
:107C8000CD38000015390000EC3300203A00003AEE
:107C9000F03300203A00003AF43300203A00003A72
:107CA000F83300203A00003A00000000744B000056
:107CB000544B0000344B00000000000000000000A6
:107CC00000000000000000000000000000000000B4
:107CD00000000000000000000000000000000000A4
:107CE0000000000000000000000000000000000094
:107CF0000000000000000000000000000000000084
:107D00000000000000000000F1250000C92500006F
:10800000989200206DB2000075FC000041B20000A3
:1080100041B2000041B2000041B2000041B2000094
:10802000000000000000000000000000A9AB0000FC
:1080300041B200000000000049AB000041B2000066
:108040002DAC00002DAC00002DAC00002DAC0000CC
:108050002DAC00002DAC00002DAC00002DAC0000BC
:108060002DAC00002DAC00002DAC00002DAC0000AC
:108070002DAC00002DAC00002DAC00002DAC00009C
:108080002DAC00002DAC00002DAC00002DAC00008C
:108090002DAC00002DAC00002DAC00002DAC00007C
:1080A0002DAC00002DAC00002DAC00002DAC00006C
:1080B0002DAC00002DAC00002DAC00002DAC00005C
:1080C0002DAC00002DAC00002DAC00002DAC00004C
:1080D0002DAC00002DAC00002DAC00002DAC00003C
:1080E0002DAC00002DAC00002DAC00002DAC00002C
:1080F0002DAC00002DAC00002DAC00002DAC00001C
:108100002DAC00002DAC00002DAC00002DAC00000B
:108110002DAC00002DAC00002DAC00002DAC0000FB
:108120002DAC00002DAC00002DAC00002DAC0000EB
:108130002DAC00002DAC00002DAC00002DAC0000DB
:108140002DAC00002DAC00002DAC00002DAC0000CB
:108150002DAC000053B94AB9002908BF00281CBF44
:108160004FF0FF314FF0FF3000F00CB8ADF1080CCC
:108170006DE904CE00F008F8DDF804E0DDE9022343
:1081800004B07047704700BF2DE9F04786468C4623
:108190000846089E154674461946002B40F0C180DB
:1081A0008542B2FA82F245D94AB1C2F1200300FAFF
:1081B00002FC954094402EFA03F343EA0C0C4FEA7C
:1081C000154EA8B2230CBCFBFEF80EFB18CC08FB26
:1081D00000F943EA0C43994528D9EB1808F1FF3719
:1081E00004D2994502D9A8F102072B44A3EB090355
:1081F000A4B2B3FBFEFC0EFB1C330CFB00F044EA04
:108200000344A04214D92C190CF1FF3304D2A0422C
:1082100002D9ACF102032C44241A43EA07401EB1F0
:10822000D440002334607360BDE8F0874746DDE743
:108230006346F1E792BB431B01214FEA154EAFB2F3
:10824000200CB3FBFEFC0EFB1C330CFB07F840EAD2
:108250000343984561D9EB180CF1FF3004D29845DF
:1082600002D9ACF102002B44A3EB0803A4B2B3FB88
:10827000FEFC0EFB1C330CFB07F744EA0344A74249
:108280004DD92C190CF1FF3304D2A74202D9ACF11D
:1082900002032C44E41B43EA0040C0E7C2F1200380
:1082A0009540944020FA03F12EFA03F34FEA154E5D
:1082B0009040AFB20343B1FBFEFC0EFB1C10190C47
:1082C0000CFB07F841EA0041884522D969180CF1F6
:1082D000FF3004D2884502D9ACF102002944A1EB59
:1082E00008019BB2B1FBFEFC0EFB1C110CFB07F757
:1082F00043EA01439F420ED9EB180CF1FF3104D23F
:108300009F4202D9ACF102012B44DB1B41EA004140
:1083100093E76046E3E76146F7E76046A4E7634614
:10832000B8E7834206D916B9002108467CE7C6E9BA
:1083300000E0F9E7B3FA83F78FB9834201D37245BE
:1083400008D8BEEB020460EB030301209C461EB973
:10835000002169E73846FAE7C6E9004CF8E7C7F1BB
:10836000200CBB400EFA07F522FA0CF42EFA0CF1A1
:10837000BA401C4320FA0CF3B8404FEA14490143B9
:108380001FFA84FEB3FBF9F809FB18300B0C08FB4D
:108390000EFA43EA00439A4540D9E31808F1FF304A
:1083A00004D29A4502D9A8F102002344A3EB0A03A0
:1083B00089B2B3FBF9F809FB183308FB0EFE41EA5A
:1083C00003418E452CD9611808F1FF3304D28E4544
:1083D00002D9A8F10203214443EA0040A1EB0E01B7
:1083E000A0FB02984145CE46434602D306D14D45F7
:1083F00004D20138B9EB020E68EB0403002EA7D0BB
:10840000B5EB0E0261EB030101FA0CFC22FA07F353
:10841000F9404CEA0303C6E9003199E74046C5E755
:108420004346D9E72DE9F04F00240826454B8DB08F
:1084300093E80700444D454B09AF87E80700042245
:10844000204643490293CDE900462346039508940C
:1084500007F034F83F4B042206933F4B2046059328
:108460003E4B3B49CDE903533D4B0094CDE90163BD
:10847000234607F023F800F07DF858B1394BCDE9D9
:108480000350CDE90163042223462046304900947D
:1084900007F014F84FF0000BDFF8B48000214FF420
:1084A000004006F02BFE304B0024029308230422E8
:1084B000CDE90043414623462046039506F0FEFFE2
:1084C000BA462A4B04EB0B061B689C4201D3B34609
:1084D000E4E75AF8049B0422484608A900F0FCF897
:1084E00060B1204B082102930023CDE90350CDE970
:1084F000003104224146184606F0E0FF26440422DB
:10850000484608A9089600F00FF960B1154B0822FB
:1085100002930023CDE90350CDE900324146042205
:10852000184606F0CBFF089B0222CDE90393104BBF
:108530004146029300231846CDE9003306F0BEFF02
:108540000134BEE7200A01003E0D0100A60C010027
:10855000B4090100B90C0100C40C0100CF0C0100EA
:10856000DA0C0100F50C01000A0D0100008000206A
:10857000300D01002DE9F0473C4E8CB03778002FCC
:1085800040D13B4C3B48A06207F006FF034670B960
:10859000A26A3949126800900392384ACDE9010273
:1085A000022206F09BFF02200CB0BDE8F0874FF4DA
:1085B0007821A06A216009AA07F04FFD054658B14D
:1085C0002F4B3846CDE9017302223B462A490097DA
:1085D00006F084FF0320E7E702270A9B2046A381D9
:1085E000E78101F031FA044670B9264FDFF8988030
:1085F000DFF89890DFF898A0D8F800309C420FD3AD
:10860000012333700020CFE7224B2846CDE90153E8
:108610003A462B461849009506F060FF0420C3E750
:108620003D46BB68082207937B681349069355F8BB
:10863000083BCDE902A9CDE9044300231846CDE962
:108640000032042206F04AFF04232A46B98808486B
:1086500007F075FA002805DC04232A46B988044887
:1086600001F0C4FB01340C37C6E700BF4C85002085
:10867000A8820020BC060100C4090100480D0100C9
:10868000620D010004800020008000200D0E01001A
:10869000930D01007C0D01002DE9F04105460024F9
:1086A0000C270B4EDFF82C803368A34204D84FF020
:1086B000FF342046BDE8F08107FB04F3294658F853
:1086C000030007F036FB0028F3D00134ECE700BFCD
:1086D000008000200480002030B50F4B0C461B7832
:1086E000154685B05BB90D4A1846CDE901320C49F3
:1086F0000222009306F0F2FE052005B030BDFFF720
:10870000CBFF0C21074B2A4601FB0031204607F026
:1087100043FB0020F1E700BF4C850020C50D0100A0
:10872000C40901000C8000202DE9FF41164B88464A
:108730001B78144663B9154A1846CDE9013214492D
:108740000222009306F0CAFE052004B0BDE8F081C5
:10875000FFF7A2FF0C2303FB00F70E4D07F10806FD
:108760002E442246414630463D4407F015FB234641
:108770003246A988084801F039FB0028E5D0844238
:1087800014BF07200020E0E74C850020E90D010020
:10879000C409010004800020A88200202DE9F04FC8
:1087A00091B0009302F004030293C2F3C2030133B9
:1087B000840705460E46DDF868800392059340F075
:1087C000BD81041D30B1072909D86FF01B0011B01D
:1087D000BDE8F08F01F00706341DC6F10806009BC6
:1087E0004FF000094FF0040A591E4FF0FF334F4677
:1087F0000193CB465346CDF810900DB1009A2260FC
:108800000598002800F3EB809948009A824203D330
:1088100098488242C0F0E380039AA4EB050E9207C9
:108820004FEA9E0000F106810F2F00F2B480002D68
:1088300000F0088107F140020DEB020C019A0CF8E0
:10884000200C0CF8102C049801300490EAE07A28EF
:1088500060D84B280ED847285CD829282FD825283F
:1088600055D057D820287DD02338D0F1000B4BEBC2
:10887000000B77E0A0F14C0CBCF12E0F4AD8DFE8DA
:108880000CF07149494949494949494949494C49C3
:10889000494949494949495A494C4C5A5A5A714CD3
:1088A0006E497149184C18494983804C49494C49D3
:1088B000800000204FF0000B4FF0040A39E0012245
:1088C000A0F12A0C5FFA8CFC02FA0CFC1CEA0E0FD9
:1088D00048D11CF062502ED11CEA020B42D0013C60
:1088E0005444CAF1000C04EA0C04002D61D0A3EB3F
:1088F000050CA444B4453FF668AF002868D1042BAA
:1089000047D158F8043B2360042304342AE0019A39
:10891000013A01924FF0000B24E011F8010C6C2891
:1089200034D1002011F8023C83466C2BC4D14FF0A7
:10893000080A5346D3E708F1070828F00708073468
:1089400024F00704F8E802AB35B106982044B042A1
:108950003FF63BAFC4E900AB4FF0000B08344FF0DB
:10896000080A534611F8010F002878D0BBF1000F18
:108970007FF46DAF2528F5D14FF0010B019B01333A
:1089800001934FF0040AECE7584693E70020834632
:10899000A5E7082B02D06FF0150018E708F10708CB
:1089A00028F00708F8E80223C4E900230823083464
:1089B000D8E768B9042B02D108F10408A4E7082B12
:1089C000E9D108F1070828F0070808F10808EDE7E1
:1089D000059A013A059258F8042B00920DE7039A84
:1089E000900720D54FF0010CA4EB050E4FEA9E0036
:1089F000BEF5007FCFD20F2FCDD8F5B107F14002E1
:108A00000DEB020E019AC0B20EF8200C0EF8102CDD
:108A1000BCF1000F3FF417AF60F07F000EF8200CA0
:108A200009F101090137C5F108024FF6DA7E043475
:108A3000069297E74FF0000CDAE7BCF1000F01D087
:108A40000136EFE7029802360028EBD10098CDE915
:108A5000063107F05EF9DDE906310644E2E7631B03
:108A6000B3F5806F97D23DB9A6F10804E018AEE6E1
:108A7000D4050100681A0100029A9B0828602B7037
:108A80009DF81030C2B1EB7085F80290B9F1000F7B
:108A900005D0002208A8C5F1010C97420ED14FF075
:108AA000000AC5F101030DF1200801930DF1300B0F
:108AB000574512D1601B8AE66B70E5E710F8013B61
:108AC000190608D504EB0C0EB64503F07F033FF6FC
:108AD0007CAE04F8013B0132DFE7B9F1000F03D0AF
:108AE00098F90020002A17DB029BD3B11AF80B205B
:108AF00004F8012B0022019B98182044B0423FF655
:108B000064AE98F80000009904F8010B2046039227
:108B100007F042F9039A14440AF1010A08F1010826
:108B2000C6E798F8002055F822300093029B009881
:108B300045F8223007F0EDF8421CDCE76FF00D003D
:108B400045E600BF014B1860704700BF2880002039
:108B50002DE9F047058B04462807904611D40229D9
:108B600005F0070540F0CD80204606F011FD78B1F4
:108B70000138218B042811D8DFE800F0C3106D857F
:108B8000950001290CBF45F0100545F0200525830F
:108B900088F31188BFF36F8FBDE8F08701F0070AF3
:108BA000AA4500F0A6800027B9463E46A368002BE0
:108BB00000F0BD8041F00801218388F31188BFF3E4
:108BC0006F8FA168002900F0BB800D68002900F0BC
:108BD000B780334652462046D1F80480C047002D66
:108BE00076D02B6829461D46F0E701F007035A1F8F
:108BF000012A1BD8002221F00701062B276889B221
:108C0000C4E9002209D13B4603E0628B0132628352
:108C10001B68002BF9D141F002012046218306F0A8
:108C2000B7FC00287BD041F0200177E0042B0AD16B
:108C300021F0070189B22046218306F0A9FC10B17A
:108C400041F020012183218B01F0070AAA4550D071
:108C50000027B946AAE7236921F0070141F0060180
:108C6000062DD3F8009021832DD1B9F1000F40D00B
:108C700041F00801218388F31188BFF36F8F2046EC
:108C80003949C84729E021F00701236941F004016F
:108C900089B2042DD3F804902183E6D000274FF049
:108CA000040A3E4682E721F00701236941F00501ED
:108CB00089B2052DD3F808902183D6D000274FF034
:108CC000050A3E4672E700274FF0060A3E466DE76A
:108CD0002B4687E7B9F1000FD1D14FF02003EFF316
:108CE000118883F31288BFF36F8F238B23F008035F
:108CF0002383258BEA062ED525F01003238305F068
:108D000007056669218B002EBFF66FAF0023276829
:108D1000C4E9003321F0070141F001012183218BD7
:108D20004FF0000901F0070AAA457FF43FAF002F7A
:108D30009BD041F00801218388F31188BFF36F8F26
:108D4000002FC7D03D68394633465246204606F0CC
:108D50004BFC2F46F4E7AB067FF51AAF25F0200356
:108D6000238305F00705FFE615F6000010B5094C52
:108D70000A44914200D110BD11F8013B584003094B
:108D8000E35C0001C0B243401809205C1B01DBB268
:108D90005840EEE7410E01002DE9F04F81468B4629
