:10800000989200206DB2000075FC000041B20000A3
:1080100041B2000041B2000041B2000041B2000094
:10802000000000000000000000000000A9AB0000FC
:1080300041B200000000000049AB000041B2000066
:108040002DAC00002DAC00002DAC00002DAC0000CC
:108050002DAC00002DAC00002DAC00002DAC0000BC
:108060002DAC00002DAC00002DAC00002DAC0000AC
:108070002DAC00002DAC00002DAC00002DAC00009C
:108080002DAC00002DAC00002DAC00002DAC00008C
:108090002DAC00002DAC00002DAC00002DAC00007C
:1080A0002DAC00002DAC00002DAC00002DAC00006C
:1080B0002DAC00002DAC00002DAC00002DAC00005C
:1080C0002DAC00002DAC00002DAC00002DAC00004C
:1080D0002DAC00002DAC00002DAC00002DAC00003C
:1080E0002DAC00002DAC00002DAC00002DAC00002C
:1080F0002DAC00002DAC00002DAC00002DAC00001C
:108100002DAC00002DAC00002DAC00002DAC00000B
:108110002DAC00002DAC00002DAC00002DAC0000FB
:108120002DAC00002DAC00002DAC00002DAC0000EB
:108130002DAC00002DAC00002DAC00002DAC0000DB
:108140002DAC00002DAC00002DAC00002DAC0000CB
:048150002DAC000052
:1081540053B94AB9002908BF00281CBF4FF0FF31AA
:108164004FF0FF3000F00CB8ADF1080C6DE904CE0F
:1081740000F008F8DDF804E0DDE9022304B07047FC
:10818400704700BF2DE9F04786468C460846089E96
:10819400154674461946002B40F0C1808542B2FA58
:1081A40082F245D94AB1C2F1200300FA02FC95409B
:1081B40094402EFA03F343EA0C0C4FEA154EA8B28E
:1081C400230CBCFBFEF80EFB18CC08FB00F943EAB9
:1081D4000C43994528D9EB1808F1FF3704D2994587
:1081E40002D9A8F102072B44A3EB0903A4B2B3FB01
:1081F400FEFC0EFB1C330CFB00F044EA0344A042DB
:1082040014D92C190CF1FF3304D2A04202D9ACF1D9
:1082140002032C44241A43EA07401EB1D44000232D
:1082240034607360BDE8F0874746DDE76346F1E7F5
:1082340092BB431B01214FEA154EAFB2200CB3FB96
:10824400FEFC0EFB1C330CFB07F840EA0343984585
:1082540061D9EB180CF1FF3004D2984502D9ACF186
:1082640002002B44A3EB0803A4B2B3FBFEFC0EFBF9
:108274001C330CFB07F744EA0344A7424DD92C19DD
:108284000CF1FF3304D2A74202D9ACF102032C440F
:10829400E41B43EA0040C0E7C2F120039540944048
:1082A40020FA03F12EFA03F34FEA154E9040AFB2D1
:1082B4000343B1FBFEFC0EFB1C10190C0CFB07F86E
:1082C40041EA0041884522D969180CF1FF3004D2F3
:1082D400884502D9ACF102002944A1EB08019BB204
:1082E400B1FBFEFC0EFB1C110CFB07F743EA014338
:1082F4009F420ED9EB180CF1FF3104D29F4202D9F0
:10830400ACF102012B44DB1B41EA004193E76046D8
:10831400E3E76146F7E76046A4E76346B8E78342CC
:1083240006D916B9002108467CE7C6E900E0F9E75A
:10833400B3FA83F78FB9834201D3724508D8BEEBF1
:10834400020460EB030301209C461EB9002169E787
:108354003846FAE7C6E9004CF8E7C7F1200CBB4001
:108364000EFA07F522FA0CF42EFA0CF1BA401C436B
:1083740020FA0CF3B8404FEA144901431FFA84FE73
:10838400B3FBF9F809FB18300B0C08FB0EFA43EAAF
:1083940000439A4540D9E31808F1FF3004D29A45C6
:1083A40002D9A8F102002344A3EB0A0389B2B3FB68
:1083B400F9F809FB183308FB0EFE41EA03418E4528
:1083C4002CD9611808F1FF3304D28E4502D9A8F1E3
:1083D4000203214443EA0040A1EB0E01A0FB0298F2
:1083E4004145CE46434602D306D14D4504D2013819
:1083F400B9EB020E68EB0403002EA7D0B5EB0E0216
:1084040061EB030101FA0CFC22FA07F3F9404CEA90
:108414000303C6E9003199E74046C5E74346D9E777
:108424002DE9F04F00240826454B8DB093E8070052
:10843400444D454B09AF87E80700042220464349D1
:108444000293CDE9004623460395089407F034F8D7
:108454003F4B042206933F4B204605933E4B3B493A
:10846400CDE903533D4B0094CDE90163234607F066
:1084740023F800F07DF858B1394BCDE90350CDE92C
:1084840001630422234620463049009407F014F87F
:108494004FF0000BDFF8B48000214FF4004006F0E9
:1084A4002BFE304B0024029308230422CDE9004321
:1084B400414623462046039506F0FEFFBA462A4B62
:1084C40004EB0B061B689C4201D3B346E4E75AF85D
:1084D400049B0422484608A900F0FCF860B1204B34
:1084E400082102930023CDE90350CDE90031042291
:1084F4004146184606F0E0FF26440422484608A9EF
:10850400089600F00FF960B1154B0822029300237E
:10851400CDE90350CDE9003241460422184606F065
:10852400CBFF089B0222CDE90393104B41460293F3
:1085340000231846CDE9003306F0BEFF0134BEE740
:10854400200A01003E0D0100A60C0100B40901003F
:10855400B90C0100C40C0100CF0C0100DA0C0100BD
:10856400F50C01000A0D010000800020300D01000F
:108574002DE9F0473C4E8CB03778002F40D13B4C6E
:108584003B48A06207F006FF034670B9A26A394966
:10859400126800900392384ACDE90102022206F0E3
:1085A4009BFF02200CB0BDE8F0874FF47821A06A4D
:1085B400216009AA07F04FFD054658B12F4B3846F4
:1085C400CDE9017302223B462A49009706F084FF55
:1085D4000320E7E702270A9B2046A381E78101F0F5
:1085E40031FA044670B9264FDFF89880DFF8989086
:1085F400DFF898A0D8F800309C420FD301233370E1
:108604000020CFE7224B2846CDE901533A462B46BA
:108614001849009506F060FF0420C3E73D46BB6897
:10862400082207937B681349069355F8083BCDE964
:1086340002A9CDE9044300231846CDE900320422FF
:1086440006F04AFF04232A46B988084807F075FA59
:10865400002805DC04232A46B988044801F0C4FB39
:1086640001340C37C6E700BF4C850020A8820020E7
:10867400BC060100C4090100480D0100620D01009F
:1086840004800020008000200D0E0100930D0100E5
:108694007C0D01002DE9F041054600240C270B4E0A
:1086A400DFF82C803368A34204D84FF0FF3420460F
:1086B400BDE8F08107FB04F3294658F8030007F0EE
:1086C40036FB0028F3D00134ECE700BF0080002023
:1086D4000480002030B50F4B0C461B78154685B03E
:1086E4005BB90D4A1846CDE901320C4902220093C8
:1086F40006F0F2FE052005B030BDFFF7CBFF0C21DC
:10870400074B2A4601FB0031204607F043FB0020BB
:10871400F1E700BF4C850020C50D0100C40901002C
:108724000C8000202DE9FF41164B88461B78144627
:1087340063B9154A1846CDE901321449022200935F
:1087440006F0CAFE052004B0BDE8F081FFF7A2FFE1
:108754000C2303FB00F70E4D07F108062E442246B6
:10876400414630463D4407F015FB23463246A9886E
:10877400084801F039FB0028E5D0844214BF0720E3
:108784000020E0E74C850020E90D0100C409010048
:1087940004800020A88200202DE9F04F91B00093BE
:1087A40002F004030293C2F3C203013384070546B3
:1087B4000E46DDF868800392059340F0BD81041DE8
:1087C40030B1072909D86FF01B0011B0BDE8F08F54
:1087D40001F00706341DC6F10806009B4FF000099E
:1087E4004FF0040A591E4FF0FF334F460193CB4616
:1087F4005346CDF810900DB1009A226005980028D8
:1088040000F3EB809948009A824203D3984882424D
:10881400C0F0E380039AA4EB050E92074FEA9E0092
:1088240000F106810F2F00F2B480002D00F00881C2
:1088340007F140020DEB020C019A0CF8200C0CF825
:10884400102C049801300490EAE07A2860D84B2870
:108854000ED847285CD829282FD8252855D057D892
:1088640020287DD02338D0F1000B4BEB000B77E0B0
:10887400A0F14C0CBCF12E0F4AD8DFE80CF0714982
:10888400494949494949494949494C494949494951
:108894004949495A494C4C5A5A5A714C6E49714982
:1088A400184C18494983804C49494C4980000020A0
:1088B4004FF0000B4FF0040A39E00122A0F12A0C1A
:1088C4005FFA8CFC02FA0CFC1CEA0E0F48D11CF077
:1088D40062502ED11CEA020B42D0013C5444CAF12E
:1088E400000C04EA0C04002D61D0A3EB050CA44495
:1088F400B4453FF668AF002868D1042B47D158F837
:10890400043B2360042304342AE0019A013A0192CF
:108914004FF0000B24E011F8010C6C2834D1002036
:1089240011F8023C83466C2BC4D14FF0080A53461D
:10893400D3E708F1070828F00708073424F00704F0
:10894400F8E802AB35B106982044B0423FF63BAF9D
:10895400C4E900AB4FF0000B08344FF0080A53464B
:1089640011F8010F002878D0BBF1000F7FF46DAF30
:108974002528F5D14FF0010B019B013301934FF0F2
:10898400040AECE7584693E700208346A5E7082B42
:1089940002D06FF0150018E708F1070828F007085F
:1089A400F8E80223C4E9002308230834D8E768B9A7
:1089B400042B02D108F10408A4E7082BE9D108F13B
:1089C400070828F0070808F10808EDE7059A013AB6
:1089D400059258F8042B00920DE7039A900720D5CE
:1089E4004FF0010CA4EB050E4FEA9E00BEF5007F8C
:1089F400CFD20F2FCDD8F5B107F140020DEB020E07
:108A0400019AC0B20EF8200C0EF8102CBCF1000F25
:108A14003FF417AF60F07F000EF8200C09F1010954
:108A24000137C5F108024FF6DA7E0434069297E75F
:108A34004FF0000CDAE7BCF1000F01D00136EFE78C
:108A4400029802360028EBD10098CDE9063107F0F0
:108A54005EF9DDE906310644E2E7631BB3F5806F96
:108A640097D23DB9A6F10804E018AEE6D40501009A
:108A7400681A0100029A9B0828602B709DF8103038
:108A8400C2B1EB7085F80290B9F1000F05D0002255
:108A940008A8C5F1010C97420ED14FF0000AC5F1A8
:108AA40001030DF1200801930DF1300B574512D14C
:108AB400601B8AE66B70E5E710F8013B190608D5E0
:108AC40004EB0C0EB64503F07F033FF67CAE04F8CE
:108AD400013B0132DFE7B9F1000F03D098F9002020
:108AE400002A17DB029BD3B11AF80B2004F8012BE0
:108AF4000022019B98182044B0423FF664AE98F8D7
:108B04000000009904F8010B2046039207F042F993
:108B1400039A14440AF1010A08F10108C6E798F817
:108B2400002055F822300093029B009845F822302B
:108B340007F0EDF8421CDCE76FF00D0045E600BFDE
:108B4400014B1860704700BF288000202DE9F047D2
:108B5400058B04462807904611D4022905F0070521
:108B640040F0CD80204606F011FD78B10138218B0C
:108B7400042811D8DFE800F0C3106D8595000129A1
:108B84000CBF45F0100545F02005258388F31188B6
:108B9400BFF36F8FBDE8F08701F0070AAA4500F024
:108BA400A6800027B9463E46A368002B00F0BD808E
:108BB40041F00801218388F31188BFF36F8FA16806
:108BC400002900F0BB800D68002900F0B78033460F
:108BD40052462046D1F80480C047002D76D02B6839
:108BE40029461D46F0E701F007035A1F012A1BD846
:108BF400002221F00701062B276889B2C4E900226C
:108C040009D13B4603E0628B013262831B68002B6F
:108C1400F9D141F002012046218306F0B7FC002877
:108C24007BD041F0200177E0042B0AD121F0070129
:108C340089B22046218306F0A9FC10B141F020013D
:108C44002183218B01F0070AAA4550D00027B94699
:108C5400AAE7236921F0070141F00601062DD3F8A4
:108C6400009021832DD1B9F1000F40D041F00801CB
:108C7400218388F31188BFF36F8F20463949C84791
:108C840029E021F00701236941F0040189B2042D90
:108C9400D3F804902183E6D000274FF0040A3E461F
:108CA40082E721F00701236941F0050189B2052D0E
:108CB400D3F808902183D6D000274FF0050A3E460A
:108CC40072E700274FF0060A3E466DE72B4687E71A
:108CD400B9F1000FD1D14FF02003EFF3118883F3E2
:108CE4001288BFF36F8F238B23F008032383258B14
:108CF400EA062ED525F01003238305F007056669DF
:108D0400218B002EBFF66FAF00232768C4E9003320
:108D140021F0070141F001012183218B4FF000096B
:108D240001F0070AAA457FF43FAF002F9BD041F022
:108D34000801218388F31188BFF36F8F002FC7D0F8
:108D44003D68394633465246204606F04BFC2F46D2
:108D5400F4E7AB067FF51AAF25F02003238305F073
:108D64000705FFE615F6000010B5094C0A449142C8
:108D740000D110BD11F8013B58400309E35C000128
:108D8400C0B243401809205C1B01DBB25840EEE737
:108D9400410E01002DE9F04F81468B4617461C46D3
:108DA400002595B0387808B9284657E37B1C252858
:108DB400039306D05946C8470028C0F24F830135B3
:108DC400FBE1182200210EA806F0EFFF7B78252B8B
:108DD4007DD0002398469E469C461E46781C01463C
:108DE40010F8012B2B2A00F0A18000F29880202A91
:108DF40000F09F80232A00F09F802BB19DF8403023
:108E040043F040038DF84030B8F1000F05D09DF8D1
:108E1400403043F020038DF84030BEF1000F05D000
:108E24009DF8403043F010038DF84030BCF1000F42
:108E340005D09DF8403043F008038DF840302EB142
:108E44009DF8403043F004038DF840309DF84030E5
:108E540003F04400442803D16FF386138DF84030A7
:108E64009DF840302A2A43F080038DF840307FD1AA
:108E74009DF841204B1C42F001028DF841201A78E4
:108E84002E2A0CBF012100219DF8412061F34102EB
:108E94008DF8412078D15A782A2A6ED000224FF0DA
:108EA4000A0C0133194611F8010BA0F13006092E02
:108EB40040F295809DF840101292C1F3400040EAC0
:108EC400D2700A4660F341028DF840205CE0BA1C7F
:108ED40003928DF843309DF84130DA0740F12E813A
:108EE40054F8048BB8F1000F07DA9DF84020C8F15C
:108EF400000842F004028DF840205E0740F127810B
:108F040054F804ABBAF1000F80F226819DF8413089
:108F14006FF341038DF841304FF0FF3A1CE12D2AE5
:108F24000DD0302A7FF469AF012358E74FF0010CCC
:108F340055E74FF0010E52E74FF001084FE70126C5
:108F44004DE703460EFB0262303A184610F8016BF7
:108F5400A6F1300CBCF1090FF3D999428FD09DF8DA
:108F640040101192D20F62F341018DF8401086E750
:108F74000B4600224FF00A0EE7E79DF8412002332A
:108F840042F004028DF841201A786C2A47D02BD87D
:108F9400682A31D06A2A4BD04C2A51D01A4612F88A
:108FA400013B782B03928DF843309DF8412000F269
:108FB400BE806D2B51D8692B00F2B980572B67D82E
:108FC400412B03D0453B022B00F2B18004229DF8D3
:108FD400423062F302038DF84230012373E00CFB4C
:108FE40002020B46303A5DE7742A25D07A2AD5D19D
:108FF40006219DF841200CE05A78682A9DF841200A
:1090040006D1012161F3C6028DF841200233C5E780
:10901400022161F3C6028DF841200133BEE75A787C
:109024006C2A9DF8412001D10421EBE70321F0E7EC
:1090340005219DF84120ECE707219DF84120E8E750
:10904400BDF8402022F4F04222F0020242F48042B1
:1090540042F00202ADF84020DFE76E3BD9B20123B3
:109064008B4040F282410B4237D113F0240F51D18F
:10907400D8075CD503219DF8423061F302038DF8D3
:10908400423002F07803A3F140014B424B411AE015
:109094000120A3F15801C9B200FA01F111F4624FA1
:1090A40094D140F6010631421DD111F4043F3ED063
:1090B4009DF8423060F3020302F07802402A8DF8F2
:1090C400423034D000239DF84020C2F340010B43CA
:1090D40063F341028DF84020FDE602219DF8423001
:1090E40061F30203E8E702209DF8421002F07802DF
:1090F40060F30201402A8DF8421002BF9DF840102F
:1091040041F001018DF84010632BDBD1131E18BF11
:109114000123D8E703219DF8423012F0780F61F360
:1091240002038DF8423014BF01230023CBE79DF8DE
:10913400403043F001038DF84030C3E79DF94020EF
:10914400002AACBF4FF0FF38DDF84480D5E698071D
:109154007FF5E2AEDDF848A00023CDE911339DF898
:1091640042309DF8411003F00703012BC1F3C30102
:1091740033D1CB1E042B04D8DFE803F0214646216B
:109184002100236801294FEAE372CDE90E321CD194
:109194009DF93830DA17CDE90E3204349DF84030A9
:1091A40013F0030650D03A4659464846039B06F04E
:1091B4000CFB0028C0F252810544039FF2E554F8E9
:1091C400043BDA17CDE90E32E8E70229E5D11AB2F9
:1091D40043F3C033CDE90E23DFE7022B24D1CB1EAA
:1091E400042B04D8DFE803F0181010181800012924
:1091F4004FF0000254F8043B14D00229CDE90E329A
:10920400CCD19BB20E93C9E7073424F00704F4E8E9
:109214000223CDE90E23C1E754F8043B0E93002347
:109224000F93BBE7DBB2CDE7042B08D1073424F05E
:109234000704D4E900230834CDE90E23AEE7032B59
:10924400ACD154F8043BDDE79DF843007828B4D84A
:1092540062281CD825283FF4ADAD5828ADD1DDE9EE
:109264000E010DF13603009310AA08AB06F067FA5D
:10927400BAF1000F074680F29980002F9DD00DF1BE
:109284003603D81B002E00F0C0800130BDE06338E7
:10929400152892D801A252F820F000BF759300005F
:1092A40087930000BF910000BF910000BF910000B0
:1092B400BF91000087930000BF910000BF910000A0
:1092C400BF910000BF91000013940000AB93000015
:1092D400D1930000BF910000BF910000F9920000FB
:1092E400BF910000AB930000BF910000BF9100004C
:1092F400AB930000BAF1000F0E9F35DB51463846A0
:1093040006F00CFD07EB000A002F3FF456AF0026D1
:109314009DF8423013F01002059200F09280023062
:109324005B06119A48BF129B104448BFC018B8F19D
:10933400000F049240F39F809DF84020A8EB0008A2
:10934400C2F380035007069300F19580510640F163
:1093540088803EB159463046C84700287EDB069BCC
:1093640001351E4630227DE0384606F0D0FCC9E7C0
:109374000E9B002601208DF8203008AF0DF1210A44
:10938400C6E719075ABFC3F300135E012B26DDE9B4
:109394000E23002BBFF663AF524263EB43032D262B
:1093A400CDE90E235BE7002659E700269DF840200F
:1093B4000DF13603DB1B6FF386129A458DF84020BE
:1093C4007FF65BAFAAEB0303119356E70E9890B3B5
:1093D4000DF136030093002108AB10AA06F0AFF993
:1093E400BDF84230BAF1000F03F0EF0343F4F04349
:1093F40043F010030746ADF84230D6DA00283FF4B4
:10940400DCAE00260DF13603181A9A4680E70E9B4F
:1094140007293FF6D2AEDFE801F00C04060C080879
:109424000C0C1D70C9E61D80C7E6EA17C3E900529B
:10943400C3E61D60C1E62F4F064607F1050A052065
:1094440066E71A0748BF01306AE710460793069299
:109454005946C847DDE90623002804DA15B0BDE8FB
:10946400F08F202243461946002903F1FF33ECDC38
:10947400454498466D1A2EB159463046C8470028CF
:10948400ECDB01359DF84230DA0601D41B0705D523
:1094940059463020C8470028E0DB0135059B33B12D
:1094A40059469DF84300C8470028D7DB0135049E80
:1094B4002E4405E059463020C8470028CEDB01354C
:1094C400731B002BF6DC53463A465946484606F0D1
:1094D4007CF90028C2DB0544A844A8EB0503002B53
:1094E4007FF76BAE59462020C8470028B6DB01350C
:1094F400F3E700BF510E0100052370B5144D154E5E
:109504002C780134B4FBF3F303EB8303E41A06F081
:10951400ACFE114A137823B156F82430C01A072838
:1095240013D90E4BD3F8141141B10021C3F814110F
:10953400D3F814312C700CB9012313702C7806F075
:1095440094FE46F82400012070BD0020FCE700BF13
:109554004E850020D88200204D8500200050004018
:1095640048B1054B054A1B68B3FBF2F35843044B5F
:1095740043F0010318477047A080002040420F00C9
:10958400300A01007FB50BAB05930393054B012211
:10959400029300231846CDE9003300F071FE07B0B2
:1095A4005DF804FB5B0E010070B586B005A804F0FD
:1095B400ADF8284B984249D103F0B8FD041E0FDAE8
:1095C4009DF8140004F0A8F8234B01220293002311
:1095D40022491846CDE900330394FFF7D3FF32E064
:1095E40040F607031E4D8DF81540AE68ADF81630F1
:1095F4007468059B14B96FF05704E5E70821284601
:10960400184AA047041EDFDB3369002BF3D0012284
:10961400082128469847041ED6DB01239DF81450E0
:10962400114AAB40C2F804359DF815009DF8176047
:1096340006F010FE0D4B45F00045B600C0F8805012
:109644009D51002CC0D1204606B070BD6FF01204AD
:10965400BAE700BF0000AD0B5B0E0100F409010086
:10966400D4060100B99600000070014080A10240B8
:1096740038B5049CC4F30725284603F0C9FB002130
:109684000A4BA20B02F0FC02C0F88010995001238F
:10969400E4B2074AA3402846C2F8083503F064FD43
:1096A4002046BDE8384004F037B800BF80A002402F
:1096B40000700140F7B5144683681B690BB10022A2
:1096C4009847C4F30726304603F0AAFB0546304604
:1096D40006F0C0FD0027104B220E9200C0F88070E7
:1096E4009F50304603F094FBA20B0C4B02F0FC029B
:1096F4001344E2B242F000421A60094BC0F88020E1
:1097040005F13202009330463B460194520006F0C4
:10971400AAFD03B0F0BD00BF80A1024080A00240BA
:109724007596000006F0C1BD70B5838905680E0CFE
:10973400090C03FB015586B0CDE90453114B0822F3
:109744000393114B04460293002310491846CDE9B4
:109754000032042206F00AF93604A06AA28983685A
:1097640029469B68984750B9E26A31462046A38946
:10977400127906F0CDF8002818BF6FF0050006B086
:1097840070BD00BF4F1001008C0E01009409010050
:109794002DE9F0434B8889B004931D4B08240393AF
:1097A4001C4B0746029300230D461846CDE90034AE
:1097B4001949042206F0DAF82146F86A06F0E6F8B8
:1097C40080462C68DFF85490241A2C6004EA0906B9
:1097D400B44203D8002009B0BDE8F0830823214631
:1097E400384606AA06F04FF80028F4D1384606A9F0
:1097F40006F0D6F840B1BDF81A30BDF81C2006EAD0
:10980400090613441E442C60A4EB0804E0E700BFDF
:109814003A100100AD0E0100940901000000FFFFA1
:1098240030B5838889B00493104B00250393104B03
:1098340004460293082304222846CDE900530D4927
:109844002B4606F093F84FF6FF73ADF81830A36873
:1098540006A8ADF81A30ADF81C5006F07EF8204684
:1098640006A906F059F909B030BD00BF1F10010068
:10987400D40E0100940901002DE9F04F08219BB09A
:109884000446C06A06F082F80546636820461B0C4D
:109894001B0409A9099306F004F8DDF824B0A6898D
:1098A4000CAA5E44761B0823314620460A9605F02E
:1098B400EAFF021EC0F2BB80E36A0CAA19790023F6
:1098C40012F8010B814240F0A1800133082BF7D13B
:1098D400A36862682B449A4280F0908059462046DF
:1098E400FFF722FF0246A2E0BDF83230360C360400
:1098F4001E440A960EAA20460AA9DDF828A006F0FE
:1099040087F80246002840F0928020460EA906F00F
:1099140047F818B9079B5345ECD1D9E763680B9313
:1099240010AA20460BA90B9E06F072F802460028E6
:109934007DD1BDF84020BDF838309A4238D06268F5
:109944000B9B9A42ECD1B245E4D1BDF83C30002BDC
:10995400E0D00593BDF8383008220493364B3749DC
:109964000393374B029300231846CDE900320422B7
:1099740005F0FCFFBDF83A704FEA1A431B041F447C
:10998400A3680EA8ADF83A3005F0E7FFE36ABDF826
:109994003C901E68764206F02006B9F1000F0ED105
:1099A40020460EA906F0B8F802460028B2D03EE0E0
:1099B400204610A905F0F4FF0028C0D0C3E74E45A7
:1099C400B04628BFC84612AA43463946204605F089
:1099D4005AFF024658BB4346A16812AA204606F025
:1099E40061F841460246E06A05F0D0FFA3680344EB
:1099F400A360E2B9A9EB08094744CEE72046FFF784
:109A04000FFF024600283FF469AF10E0731B2046A5
:109A14000CA9079305F0DEFF00287FF465AF20460C
:109A24000AA9FFF7B5FE024600283FF463AF1046CB
:109A34001BB0BDE8F08F00BF331001009409010092
:109A4400F10E01002DE9F04704468EB000F1140731
:109A5400384606F0D5FCA06A8368DB68984703465D
:109A6400E06230B9904A0090CDE9010201228F49A9
:109A74000FE0A06A8368DB6898470368013B1F2BEB
:109A84000FD98B4B0293002301221846CDE90033F2
:109A9400864905F06BFF6FF0150528460EB0BDE84A
:109AA400F087A06A21680BAA06F0D5FA08B1814BA9
:109AB400E8E7A5892DB10C9BB5FBF3F203FB125526
:109AC4000DB17D4BDEE7E389012B05D87B4B009577
:109AD400CDE901532B46C9E7E36A069593F8049050
:109AE4004FF0FF334FF0FF32384604F045FF0821B2
:109AF400E06A05F04BFFA8460646E3891FFA85FA9B
:109B0400534508D8E389434523D1384604F0AEFFD2
:109B14006FF02C05C1E7A1892B04891B13FA81F18D
:109B24004A4608232046069105F0F2FE78B1204605
:109B340006A905F0B6FE08F1010808234A462046A6
:109B440006991FFA88F805F0E3FE0028DAD00135FB
:109B5400D3E753450BD1069908234A462046891B6F
:109B640005F0D6FE18B9204606A905F09AFE20464F
:109B740006A9FFF70DFE054618B1384604F076FF36
:109B84008BE7069B4FEA13484FEA08486360C4F822
:109B94000880D4E9011399420FD30823204607AA69
:109BA40005F071FE05460028E7D107AB13F8012B39
:109BB400914543D10135082DF8D1636820461B0C2B
:109BC4001B0406A9069305F06CFE4A462046A389A9
:109BD400069905F09DFE051ECFDB636800F08280C8
:109BE4004FF6FF7906EB0308A3891FFA88F29B1B43
:109BF4009A42CDF818803DD3314B032202930023BF
:109C04002A491846CDE9003305F0B0FE20466168C4
:109C1400FFF78AFD05460028AFD16368294AA18968
:109C240013400B44A3EB4603636013402046A36038
:109C3400FFF722FE0546002D70D09EE7204607A9B7
:109C440005F0AEFE626810B9921B6260A1E7BDF830
:109C54002050BDF81E10E06AC4F80880294405F0BD
:109C640095FE40449042A060EED1002DECD06FF000
:109C74001C0590E008234146204609AA05F003FE8E
:109C8400054600287FF479AF204609A905F088FE2F
:109C940038B1BDF824304B4503D1BDF82830002B32
:109CA4007FD0B044A0E700BF1B0F0100940901005E
:109CB4003D0F01005A0F0100720F0100860F0100D1
:109CC400E30F01000000FFFF4A4620465B1A05F03F
:109CD4001FFE051EFFF651AF08D0E26AA3681268A2
:109CE4001344A360D4E901318B42EDD86168A389A0
:109CF40001EB46029A429ED1DFF8D480A26801EAC1
:109D040008039A4297D02046FFF70EFD0546002827
:109D14007FF433AF636803EA0803A360A389A288CE
:109D2400A3EB46039A4232D0384604F09FFE012347
:109D340000252374A38928460493E389032203930B
:109D4400244BCDE90055029323492B4605F00EFE22
:109D5400636828469AB21B0C0393204B0492CDE906
:109D6400015303222B461C49009505F0FFFDA3680F
:109D740028469AB21B0C0393194B0492CDE9015364
:109D840003222B461449009505F0F0FD85E6204694
:109D9400FFF746FD0546384604F068FE002DC6D0A0
:109DA4007BE6104B03222846CDE901530A492B4692
:109DB400009505F0DBFD636820461B0C1B0406A917
:109DC400069305F06EFD20460699FFF7ADFC31E7DA
:109DD4000000FFFFA90F010094090100C00F01005A
:109DE400D20F01000A1001002DE9F04F1D46037C3B
:109DF4000446894690468DB073B9664A1846CDE943
:109E0400013265490122009305F0B0FD6FF00C06A4
:109E140030460DB0BDE8F08FC26A0821104605F047
:109E2400B5FD82462946104605F0B0FDA3890746D4
:109E3400A3EB8A03AB42C0F0A9801DB1B8F1000FB7
:109E440000F0A48063680793204608AA07A9DDF8F8
:109E54001CB005F0DDFD06460028D9D1BDF8203040
:109E64004B4505D06268079B9A42EDD1E5B9CFE72F
:109E7400204608A905F094FD0028F3D0BDF822007F
:109E8400BDF8243075B1AB420ED14FEA1B41090431
:109E940001442B464246204605F010FD002803DC11
:109EA4000646B5E7002BB3D0002F3ED104F11403CE
:109EB40005934FF0FF324FF0FF3304F1140004F028
:109EC4005BFDDFF8D8B0E3899E425CD0D4E901237E
:109ED400F9188A422CD3ADF82A30FF230AA88DF84A
:109EE4002E30ADF82890ADF82C5005F036FD2B46F9
:109EF4004246A168204605F0D5FD29468246E06A1F
:109F040005F044FDA2680244A260BAF1000F07D133
:109F140020460AA905F000FE002814BF8246AA467E
:109F2400059804F0A3FD564672E75744BFB2BDE757
:109F34000821E06A05F02AFD4FF6FF73ADF82830DA
:109F44000023ADF82C301318ADF82A30A38902EAA7
:109F54000B021A44101A60600AA805F0FEFC0AA954
:109F6400204605F0D9FD2046211D05F09AFC6368C2
:109F7400204603EA0B03A360FFF77EFC8246002819
:109F8400CED101369FE76FF01B0AC9E76FF01506C3
:109F94003EE700BF070F0100940901000000FFFF26
:109FA4002DE9F0471E46037C88B004460F469046D0
:109FB400BDF840906BB92F4A1846CDE901322E49BD
:109FC4000122009305F0D2FC6FF00C0008B0BDE84C
:109FD400F0870821C06A05F0D9FCA389A3EB4003EC
:109FE400B34243D30025D4F804A0CDF814A04D45C2
:109FF4005146DDF814A009D9636853451ED1BDF854
:10A004001830BB421AD06FF00100DFE7204606AAE1
:10A0140005A905F0FDFC0028D8D1BDF81830BB42D5
:10A0240006D1204606A905F0BBFC08B10135ADB246
:10A034006268059B9A42DAD15146E0E7BDF81C30CC
:10A04400002BE0D0A945DED8BDF81A00090CB342B4
:10A054004FEA014128BF334601444246204605F0F9
:10A0640012FC0028B2D1BDF81C00AFE76FF0150058
:10A07400ACE700BF070F0100940901002DE9F84F78
:10A0840081462F480F4605F063FD064670B92D4CF6
:10A094000546A0464FF0010BDFF8ACA0544507D3AA
:10A0A400B9F1000F02D04FF0010AE5B9BDE8F88F0D
:10A0B400237B73B12368DB680BB120469847236880
:10A0C4001B6943B9636804222046196800F0C4F888
:10A0D40001361034E2E7204698470028F2D00BFA04
:10A0E40006F31D43F4E7A94695FAA5F4B4FA84F4FB
:10A0F4000AFA04F3260108EB04146FEA030B25EAB9
:10A104000305237B63B158F806301B6993B94644B1
:10A11400736804222046196809EA0B0900F09CF8C8
:10A12400002DE1D127B14FF4A470002104F0E4FF25
:10A134004D46BAE7204698470028F1D1E7E700BF2B
:10A14400F4820020040A0100140A0100014B53F8B0
:10A1540020007047380A010008B5034608462BB1B1
:10A16400044A136000F07AFA002008BD6FF015006D
:10A17400FBE700BF2C8000200023054A4FF4004178
:10A184001370044A04481360044A1360FFF7E4BFE1
:10A194004F850020EC82002051FB0000F08200205B
:10A1A40070B50B4D297841B90120FFF767FF094CC1
:10A1B400094EB44202D301232B7070BD63685B79EE
:10A1C4001BB1236820469B6898471034F1E700BF11
:10A1D4004F850020040A0100140A010010B504464A
:10A1E400064805F0B5FC3CB1054BD3E8EF1F013937
:10A1F400C3E8E21F002AF8D110BD00BFEC820020A2
:10A20400F082002070B50A4B05461B689847094C3C
:10A21400094EA860B44200D370BD63685B7923B172
:10A224002368294620461B6898471034F2E700BF8C
:10A234002C800020040A0100140A0100044A054B82
:10A244009B1AB1EBD30F34BF52F831000020704792
:10A254005C090100040A0100084B10B4C31A4468E5
:10A264001B110133237143689A71012243681960F9
:10A2740043685A7110BC05F089BC00BF040A010090
:10A284002DE9F04F85B002AF0446D7E90EA90E467A
:10A29400934698463D6BBAF1000F33D0C7F804904B
:10A2A400CDF800901021534600207A6BFEF774FA23
:10A2B4000146154A04F007040BF0070BE40044EAD6
:10A2C4008B1402EA4122144344EA055417350D4421
:10A2D40025F00705ADEB050D02ADBAF1000F07D06F
:10A2E400CDF8009053467A6B05F11000FEF754FA4E
:10A2F400434622463146284605F04BFC0C37BD4602
:10A30400BDE8F08F5146D4E700FE0F000EB403B54C
:10A3140003AB53F8042B01460448019305F07BFC7E
:10A3240002B05DF804EB03B0704700BFC9FB000046
:10A33400CA0605D48B064CBF02490349FFF7E6BFA2
:10A34400704700BF7B1001007A1001002DE9F04F27
:10A3540089B09B46DDE915769DF8483004460493A0
:10A36400DDE913930593049B0D460692002B00F040
:10A37400878006F00803079305F009FC06F0020A3B
:10A38400024600284BD020468549FFF7BFFF804690
:10A39400BAF1000F08D016F0440F42D12A462046E5
:10A3A4008049FFF7B3FF804406F001035BB17E4BA5
:10A3B400049A204653F822207C4B7D49002A08BF8A
:10A3C4001A46FFF7A3FF06F00803002B55D0794B7C
:10A3D400049A204653F822207749FFF797FF054651
:10A3E400069B2BB11A4620467449FFF78FFF05449C
:10A3F400BBF1000F05D05A4620467149FFF786FF8E
:10A4040005444544B9F1000F49D1002F4FD1F3075A
:10A4140000F1C08031462046FFF78AFFB4E0804651
:10A42400B6E7684B18680028BDD0674B4FF47A7EB6
:10A434001B684FF46162B5FBF3F5B5FBF0F300FB69
:10A4440013550EFB05F5B3FBF2FAB5FBF0FC3C210A
:10A4540002FB1A3200FB1C55B2FBF1F30EFB05F5AF
:10A46400B5FBF0F501FB132220460092CDE901C5AE
:10A4740052465649FFF74AFF95E706F00805AFE74D
:10A48400BBF1010F06D1B9F1000F64D1002F7BD0CD
:10A4940000250CE0B9F1000FF8D04D485CE04D48C0
:10A4A4004B4622464C4905F027F8002F68D0DFF8C8
:10A4B4002C91DFF82CA1102F31462046B8464FF0DE
:10A4C400000B28BF4FF01008FFF732FF5D4545DC55
:10A4D400059B514620461A78FFF718FF4FF0010BF1
:10A4E4001BF0070F03D149462046FFF70FFFD8455D
:10A4F4003BD9059B5146204613F80B20FFF706FF76
:10A504000BF1010BBBF1100FEAD14FF0000B204609
:10A514003449FFF7FBFE5A46059B20469A5CA2F19C
:10A5240020015F2928BF2E222F49FFF7EFFE0BF1F0
:10A53400010BBBF1100F1DD01BF0070F03D14946CF
:10A544002046FFF7E3FED8455A46E5D8494620465B
:10A55400FFF7DCFEEBE71F48049DA1E749462046D0
:10A56400FFF7D4FE0BF1010BB0E720461F49FFF7BC
:10A57400CDFEC5E7059BB7EB0807434405939AD185
:10A58400049B002B7FF443AF204609B0BDE8F04F95
:10A5940005F048BB2046054A0549FFF7B7FE39E7F1
:10A5A4008210010086100100480A01007D1001009C
:10A5B400AB1001005C0A0100AE100100B4100100F0
:10A5C400B8100100FC820020F88200208F100100E6
:10A5D400E5FB0000C9FB00001BFC0000C5100100E6
:10A5E400BD100100C7100100C9100100C310010013
:10A5F4002DE9F0410F884B6805460C4690468E685D
:10A6040086B0C7F382175BB1134A9B1A43F3CF0199
:10A6140000291FDB2078C0F3C200FFF70FFE0346BA
:10A62400214651F8102B6088C2F34A22002A01EB1C
:10A63400020408BF0021C0F30B10CDE90308CDE9E3
:10A6440001140022314628460097FFF77FFE06B02A
:10A65400BDE8F0810023E3E75C0901000021012348
:10A66400064A904206D8064A01B901231360054BF5
:10A6740018607047012140085B00F2E740420F0078
:10A68400F8820020FC820020014B002019607047F2
:10A69400148300200122024B02481A7005F0C2BA4A
:10A6A400518500208C0A010010B5064B0C46186831
:10A6B400FFF74CFD2146BDE8104003460F22024837
:10A6C400184700BF148300208C0A0100F8B50D461A
:10A6D4000446064F4618B44201D12846F8BD14F882
:10A6E400011BBB6801485B689847F4E7A4060100B6
:10A6F4002DE9F84305464FF02003EFF3118683F369
:10A704001288BFF36F8F4FF00C090D4B0D4F1C686F
:10A71400DFF834802CB986F31188BFF36F8FBDE85E
:10A72400F883D4E90123002D18BF13462BB198F800
:10A73400102009FB02F2B85C98472468EAE700BFDE
:10A74400308300202483002018850020012270B566
:10A75400164B1C7C04F01F039A40D043144B610930
:10A7640003EB8103D3E8EF1F01EA0005C3E8E65FCA
:10A77400002EF7D10A4213D00E4B0F4D8BB10C2390
:10A784006343EA185178E85C05F05DF80020FFF7B0
:10A79400AFFF0C235C4300232A192B51C2E9013378
:10A7A40070BD83F31188BFF36F8FEFE71885002026
:10A7B400388300204BF80000248300202DE9F04169
:10A7C400324B07461D7C4FF02003EFF3118883F3CF
:10A7D4001288BFF36F8F0C246C432D4B2D4E195DE3
:10A7E4001A19002947D007CA06EB040C8CE80700A5
:10A7F40000221A5588F31188BFF36F8F0C236B4323
:10A80400F05CF218A8B37B1C10D04FF40040002178
:10A81400D2F808C0204C0023ECFB00411F4A20461C
:10A82400FDF796FC0121381A02F0ACFC04F0AAFBF7
:10A834000120FFF75DFF1A4B6A0903EB8203012233
:10A8440005F01F018A40D3E8EF0F1043C3E8E10F7E
:10A854000029F8D1134B3BB10C2303FB05F033184B
:10A864005978305C04F0E3FFFFF770FF04F09EFBBF
:10A874000120BDE8F0810146284600F015F80028C3
:10A88400B8D007C8344484E80700B3E7188500202B
:10A8940018830020248300203F420F0040420F0011
:10A8A4003883002033F800002DE9F04F85B00E46C0
:10A8B40003A900F043F84FF4004704464FF0000B9F
:10A8C4001B4B039DD3F800A0431E1BB203EB4303B1
:10A8D400DFF8608005EB830524B9A146484605B03E
:10A8E400BDE8F08FC446594668680023E0FB07C101
:10A8F400114A6046FDF72CFCC44659460190A868ED
:10A904000023E0FB07C10C4A6046FDF721FCBAF1C5
:10A91400FF3FA94601D0824505D9731CDED0019BB7
:10A924001844B042DAD9013CA4B20C3DD4E700BFCC
:10A93400308000203F420F0040420F0008B9024B14
:10A944000B600020704700BF9C0A010001491022DF
:10A954000A60704710ED00E072B6404080F3118841
:10A96400BFF36F8F01B5FEF7C7FD002802D0BFF318
:10A974004F8F30BFBDE8014062B6BFF36F8F7047A1
:10A9840072B6494081F3118801B5FEF7B5FD002880
:10A9940002D0BFF34F8F20BFBDE8014080F3118880
:10A9A40062B6704770B506460D4686B0002938D0A9
:10A9B40000248B68012205934B68204604930B689E
:10A9C4001B4903931B4BCDE900440293234605F036
:10A9D40037F96B69012205932B6920460493EB68D0
:10A9E40013490393144B0094CDE90143234605F026
:10A9F40027F9EB6901220393104B2046CDE901436B
:10AA04000B492346009405F01BF9AB69012203931B
:10AA14000B4B2046CDE9014305492346009405F03C
:10AA24000FF92946304606B0BDE8704003F0AABDD0
:10AA3400D409010009110100381101006711010056
:10AA44007611010040B2002807DB01234109034AC3
:10AA540000F01F00834042F82130704700E100E01D
:10AA640040B200280CDB01220649430900F01F0014
:10AA74008240203341F82320BFF34F8FBFF36F8F01
:10AA8400704700BF00E100E0054B420953F8222063
:10AA9400012300F01F0003FA00F01040704700BFCC
:10AAA40000E100E040B2002801F10101ACBF00F177
:10AAB4006040064B4FEA4111C9B2ABBF00F561409B
:10AAC40000F00F0080F800131954704714ED00E0F3
:10AAD40030BFFFF7FDBF00BF0B4A08B50B4B22F098
:10AAE4007F029A60BFF34F8FBFF36F8FD3F8882034
:10AAF40022F47002C3F8882003F0E6FD04F07CFB26
:10AB040000F0A6FB03F020FE0080000000ED00E052
:10AB1400094A0A49936809685867996708494B685C
:10AB240043F080534B60002383F31188BFF36F8F8E
:10AB34009368986F704700BF18850020600C01006F
:10AB440000ED00E015498A6882F87DE04FF030009E
:10AB54001044EFF3098C80E8F01F202080F3128862
:10AB6400BFF36F8F0E4F4FF000668A698A603E60B4
:10AB740092F97DE0506F0023536780F3118802F14E
:10AB8400300090E8F01F8CF3098802F1000004B54E
:10AB940005F075F8BDE804407047000018850020F2
:10ABA40004ED00E01EF0040F0CBFEFF30880EFF398
:10ABB4000980816911F8021C0229FFD001B505F052
:10ABC4004FF801BD42F8203C009B0C4942F81C3C64
:10ABD400019B21F0010142F8183C029B42F8081C39
:10ABE40042F8143C4FF0807342F8043C002343675E
:10ABF4004FF43C43203A0265C36770477DF500007B
:10AC0400084B9860436E83F30B88104681F30988E0
:10AC1400002163B681F31188BFF36F8F00220023F4
:10AC240004F0AAFC1885002001B572B60B4A5069DD
:10AC340000281EBF0021516105F0D3FB62B6EFF37B
:10AC44000580A0F110004FEAC0000549014409C97C
:10AC54009847BDE8014003490847000018850020D3
:10AC6400040701006DAC0000044B996898698842A0
:10AC740003D003494FF080520A60704718850020C2
:10AC840004ED00E0F0B50024414B85B00293074683
:10AC940023460E4601222046CDE900443D4904F0F6
:10ACA400F2FF3D4B9B6ADD066FD53C4B2046CDE958
:10ACB4000143012223463749009404F0E4FF1120A4
:10ACC400354B9B6A1C070AD5354B0122029300239E
:10ACD40030491846CDE9003304F0D5FF12202E4D3B
:10ACE400AB6A99071FD500242E4B012202932046FC
:10ACF4002346CDE90044274904F0C5FF6B6BAA6ADB
:10AD040012060FD50393284B0122CDE901432046B7
:10AD140023462049009404F0B6FF1FB1AB6A23F028
:10AD24008003AB6213201C4B9B6ADD070AD51F4BC3
:10AD340001220293002317491846CDE9003304F099
:10AD4400A2FF1420144B9B6A9C060AD5184B0122BF
:10AD5400029300230F491846CDE9003304F093FF12
:10AD640015200D4B9A6AD10658BF9A6A9A6A9206C0
:10AD740042BF5A6A22F400525A629A6A42F0FF02AF
:10AD84009A620023337005B0F0BD102098E700BF2D
:10AD9400A4110100D409010000ED00E0BA11010082
:10ADA400ED11010000120100181201002E12010021
:10ADB4004D120100F0B50024434B85B002930746C1
:10ADC40023460E4601222046CDE900443F4904F0C3
:10ADD4005AFF3F4B9B6ADB0465D53E4B2046CDE9C9
:10ADE4000143012223463949009404F04CFF172003
:10ADF400374B9B6A1D050AD5374B0122029300236A
:10AE040032491846CDE9003304F03DFF1820304D97
:10AE1400AB6A9C051FD50024304B012220460293C7
:10AE2400CDE900442346294904F02DFFAB6BAA6AFF
:10AE340010040FD503932A4B0122CDE90143204688
:10AE440023462249009404F01EFF1FB1AB6A23F489
:10AE54000043AB6219201E4B9B6A59050AD5214B4E
:10AE640001220293002319491846CDE9003304F066
:10AE74000AFF1A20164A936A13F4807315D01A4BEA
:10AE840001220293002311491846CDE9003304F04E
:10AE9400FAFE1B200E4A936A43F47F439362002315
:10AEA400337005B0F0BD1620A2E7926A9204F1D582
:10AEB4000E4A1846CDE9013204490122009304F0F8
:10AEC400E2FE1C20E6E700BF7C120100D409010069
:10AED40000ED00E092120100ED110100A312010047
:10AEE400BC120100D1120100EC1201004D1201004C
:10AEF4001FB500243E4B3F490293012223462046BE
:10AF0400CDE9004404F0BFFE3B4B9B6A99016DD52B
:10AF14003A4B2046CDE901430122234635490094AA
:10AF240004F0B1FE1E20344B9B6ADA010AD5344B7F
:10AF34000122029300232F491846CDE9003304F07F
:10AF4400A2FE1F202C4B9B6ADB020AD52D4B01224B
:10AF54000293002327491846CDE9003304F093FEF9
:10AF64000220254B9B6A1C030AD5274B012202931E
:10AF7400002320491846CDE9003304F084FE212043
:10AF84001D4B9B6A59030AD5204B012202930023CF
:10AF940018491846CDE9003304F075FE2220164BFB
:10AFA4009B6A9A030AD51A4B012202930023114982
:10AFB4001846CDE9003304F066FE23200E4B9B6A4D
:10AFC400DB030AD5134B01220293002309491846D7
:10AFD400CDE9003304F057FE2420074A936A6FEA50
:10AFE40003436FEA1343936204B010BD1D209AE734
:10AFF40004130100D409010000ED00E01C1301005A
:10B004002F13010049130100731301009113010070
:10B01400B6130100D01301002DE9F043754B05462A
:10B02400D3F8048089461446002691B0C8F3080773
:10B0340086F31188BFF36F8F02F07F43B3F17F4F24
:10B0440025D112F0010322D1510603D422070DD4D5
:10B0540001260DE0684A1846CDE90132674901220C
:10B06400009304F010FE14F0040400D04D460026B2
:10B074004FF00009FB1E8DF81F90092B00F2A180F0
:10B08400DFE803F0079599919F9F9F9F9F9D354609
:10B09400EEE75B4B0122CDE90193002357491846A3
:10B0A400544FCDF8009004F0EEFD8DF81F90FC6A2B
:10B0B40014F0020405D0534BCDE90193CDF8009070
:10B0C40006E0FB6A002B0BDA4F4B0094CDE90143F9
:10B0D400002301221846494904F0D5FD002430E03C
:10B0E400FB6A5B00FAD5494B0122CDE901432046B6
:10B0F40023464249009404F0C6FD7B69AA6943F4DF
:10B1040080737B61BFF34F8FBFF36F8F7B6932F81E
:10B11400022C23F480737B61BFF34F8FBFF36F8FD7
:10B124004DF602739A4227D12B6820460393384B7D
:10B134000094CDE9014301222346304904F0A3FDE4
:10B144002C689DF81F30A3B9202229460DEB02007C
:10B1540004F020FE0F9B002E47D0C3F3080222B94F
:10B164006FEA53236FEA43230F93204608A9FFF79E
:10B1740019FC11B0BDE8F083BB6ADBB22BB101202E
:10B184000DF11F01FFF77EFD0FE0BB6A13F47F4F43
:10B1940005D001200DF11F01FFF70CFE05E0BB6A8D
:10B1A400B3F5803F9AD3FFF7A3FE0446C9E7002016
:10B1B4000DF11F01E6E700200DF11F01ECE7154B2F
:10B1C4007AE7154A18F4F87F144B18BF1346103F5A
:10B1D400CDE90337124B0122029300230749184695
:10B1E400CDE9003304F04FFD78E723F4FF7323F037
:10B1F4000103B9E700ED00E029140100D4090100BE
:10B204004C14010063140100841401009214010021
:10B21400B1140100CD14010010140100FB1301004E
:10B22400F1140100044B5A6942F010025A615A6940
:10B2340042F480625A61704700ED00E0EFF3088049
:10B24400EFF3098101B57246FFF7E6FE01BD00BFC9
:10B25400002320210348C2180133452B82F8001330
:10B26400F9D1704700E100E0002080F31488BFF3B7
:10B274006F8F002080F30A8880F30B88FEF752FA60
:10B2840000200E490860BFF34F8F0D4880F30888F3
:10B2940000F03EF8202080F311880A484FF4006142
:10B2A400401880F30988EFF314800221084380F3E7
:10B2B4001488BFF36F8FFFF70FFC000094ED00E0DC
:10B2C4009892002058850020BFF34F8F0549064B04
:10B2D400CA6802F4E0621343CB60BFF34F8F00BF30
:10B2E400FDE700BF00ED00E00400FA050023184666
:10B2F4000649D1F89020C2F30722934200DB70473D
:10B30400C1F89830C1F8A0000133F6E700ED00E081
:10B3140010B572B6002484F31388FFF7E7FF2346C1
:10B324004FF0FF300C4A03F120010133102B42F897
:10B334002100F8D100234FF0FF30074A03F16001E8
:10B344000133102B42F82100F8D162B6BFF34F8FBE
:10B35400BFF36F8F10BD00BF00E100E0084B9B6896
:10B3640083420BD1EFF3058343B1064B5A6842F095
:10B3740080525A605A6A22F400425A6203F0DCBED8
:10B384001885002000ED00E01FB5094C094A23464A
:10B394000121094800F018F900230393074B012108
:10B3A400E41A01A80193029400F018F904B010BD46
:10B3B40000000820008000209C0A01005881002021
:10B3C40010B50C7A0B6804F01F0223F01F031A4314
:10B3D400CB68640923F01F03054943EA440343F09F
:10B3E4000103C1F89800C1F89C20C1F8A03010BD39
:10B3F40000ED00E007281FB504460FD9094B039060
:10B404000293002301221846CDE90033064904F0D3
:10B4140055FC6FF01504204604B010BDFFF7D0FFB3
:10B42400F9E700BF08150100CC0901002DE9F04F30
:10B434008946144606464FF00008544D89B0C84565
:10B444002DDAD6F804A0BAF1000F4AD0BAF11F0FD2
:10B4540017D91AF01F0F14D1D6F800B01BF01F0F24
:10B464000FD1584604F021FC07460AEB0B000138C3
:10B4740004F01BFC874216D06FF01507444B03976A
:10B4840002E0444BCDF80C800293002301221846BD
:10B49400CDE90033404904F011FC6FF01504204657
:10B4A40009B0BDE8F08F17F1160FE7D0BC42E5DD17
:10B4B400C5F89870D5F89C10C5F89870D5F8A030E8
:10B4C40021F01F0143F01F0BD6E900321A449942C0
:10B4D40002F1FF3A1DD1D34507D13146F8B204F049
:10B4E400FDFB08F101080C36A9E73146C5F8987050
:10B4F400D5F89C3022F01F0203F01F031343C5F854
:10B504009C30E0B204F0EAFB10F1160FC5D0441CE5
:10B51400E7E7C5F89870D5F8A020013B23F01F0396
:10B5240002F01F021343D3453146E0B2C5F8A03000
:10B53400E8D004F0D3FB10F1160FAED0C5F8987024
:10B54400D5F89C209DF818300BF1FF3B62F30403FF
:10B554008DF81830D5F8A0309DF818205B0863F3F7
:10B5640047128DF81820D6E900321344049323F0CF
:10B574001F035B44A3EB0A03013023F01F0304A958
:10B58400C0B20793FFF736FFBEE700BF00ED00E04F
:10B59400511501002E150100CC0901000522044BB0
:10B5A400C3F89420BFF34F8FBFF36F8F704700BF72
:10B5B40000ED00E0BFF35F8F0022024BC3F894203C
:10B5C400704700BF00ED00E010B5034C2278FFF790
:10B5D4002DFF207010BD00BF528500202DE9F74FCC
:10B5E400294D8A4606464FF00008AB46274FD04502
:10B5F4001BDAD6F80490B9F1000F3FD03168084641
:10B60400019104F052FB0199044609EB0100013851
:10B6140004F04BFB84424FF014021D4B08D002FB94
:10B6240008F36FF015024BF8032003B0BDE8F08F68
:10B6340014F1160F2C60F8D01978A142F5DD02FB45
:10B6440008B0C7F89840C7F89840D7F89C4000F174
:10B654000801007B64F304000871D7F8A0000C799A
:10B66400400860F347140C71D7F89C1021F01F01B7
:10B674006960D7F8A01021F01F01296108F10108C1
:10B6840014350C36B3E700BF3C83002000ED00E026
:10B694005285002038B50E4D2C68082C15D8002092
:10B6A400FFF788FF0B4B0C4AC3F8C020844205D136
:10B6B4000A4B00201C70FFF771FF38BD696801EB6D
:10B6C4000011FFF77DFE0130F0E74FF0FF30F4E7A3
:10B6D400A80A010000ED00E0AAFF44005285002002
:10B6E400014B1860704700BF34800020084B70B5D0
:10B6F400C31A0D4607499B10044659434022064885
:10B7040004F07BFB2B4601462046BDE870401847F9
:10B7140064830020B76DDBB644060100402373B593
:10B724000B4C0093041B0B460D460A49A4106143BD
:10B734000646094A094804F08CFB011E05DA304626
:10B744002B4602B0BDE87040184702B070BD00BF80
:10B7540064830020B76DDBB6C1FE0000440601001F
:10B764002DE9F8430022012106460520FFF79AF946
:10B77400114801F0F5FE114B984219D101F000FF78
:10B7840000244FF01C090C27DFF83480356941464A
:10B7940009FB045003F04AFF002807DB012307FBE1
:10B7A40004551C44042CAB67F0D10020BDE8F88399
:10B7B4006FF00400FAE700BFFDB700000000AD0B16
:10B7C400D00A010001460C2300224B4370B50848FF
:10B7D400C41878331844D4E91C56226704F0FAFAE2
:10B7E4002DB132462B46BDE870400248184770BD63
:10B7F4006483002044060100052811D8DFE800F026
:10B80400030E10100C0A074B986F10F0070007D1B5
:10B81400FFF7D8BF0220FBE70320F9E70120F7E791
:10B82400704700BF6483002008B54FF02003EFF396
:10B83400118183F31288BFF36F8F114A136843F0A9
:10B8440002001060DA0708D481F31188BFF36F8F08
:10B85400BDE80840012001F0A7BE0A4BD3F80C2430
:10B86400D3F80C34D307EFD5074804F0B3FA81F3C7
:10B874001188BFF36F8FBDE808400020FFF7A2BF17
:10B884000484002000500040DC8300201FB5002207
:10B894000123CDE902236B46084ACDF800D0CDF848
:10B8A40004D004F004FB002805DB4FF4804200239D
:10B8B400684603F037F905B05DF804FBF7FE0000B5
:10B8C40010B54FF02003EFF3118483F31288BFF314
:10B8D4006F8F074A136823F00201DB07116002D45B
:10B8E400012004F0E6FC84F31188BFF36F8F10BDD0
:10B8F400048400202DE9F041012207463549D1E8AE
:10B90400EF3FC1E8E02F0028F9D133B93249334879
:10B914004B60CB608A6003F09CFE7B1E012B28D811
:10B92400012F06D12E4BD3F81C3403F00303022B52
:10B934001FD004F04EFD0546E8B92A4B1B78D3B15D
:10B9440002220646264BC3F80823254CDFF89880CC
:10B95400D4F81834D4F81824D20316D503F003030A
:10B96400022B01D0012F10D175B386F31188BFF3D8
:10B974006F8FBDE8F0814FF02003EFF3118683F35E
:10B984001288BFF36F8F0125DFE7C5B13046FEF79C
:10B99400F7FFD4F81835DBB2012BD9D1D4F8042140
:10B9A400002AD5D00022C4F80421D4F804210222AC
:10B9B400C4F818252022C8F88021A360C8E7002114
:10B9C400212003F099FBE4E70222054BC3F804238A
:10B9D400CFE700BF608300205083002080830020D5
:10B9E400005000405685002000E100E008B50748FB
:10B9F40004F0D0FC38B10648FFF772FE0448FDF7A6
:10BA04009FF8002008BD6FF01200FBE7A4060100B8
:10BA140019BA00000A2838B50446074D04D1AB68AA
:10BA24000D2128465B689847AB6803485B68E1B220
:10BA34009847204638BD00BFA406010000F17440B9
:10BA440000F5A6000A289ABF024B33F910006FF0E4
:10BA54000F007047900C0100024B0B600123136030
:10BA6400704700BF9C0B010000487047300B010079
:10BA740010B504464FF0FF334FF0FF32103003F09F
:10BA840051F894F840301BB90122024BC3F8B82591
:10BA940010BD00BF00500040054B994206D14FF045
:10BAA400FF324FF0FF33203003F03CB8704700BF43
:10BAB4000000AD0B90F840301BB90222024BC3F8D2
:10BAC400B825103003F00EB80050004070B54C6833
:10BAD400054688B0ECB1D4E900438868D8B1D0E910
:10BAE4000060C8B1C3B183420FD10133092B097877
:10BAF40015D9CDE90313194B0222029300231849E7
:10BB04001846CDE9003304F00FFA6FF0150008B0C1
:10BB140070BD2346E1E7064601330344E6E78DF8AA
:10BB2400193040F20113ADF81A30002328698DF85A
:10BB34001C308DF818108DF81D20FFF799FF214651
:10BB4400324606A802F0FCFB04462869FFF7B2FF60
:10BB5400204608B0BDE87040FFF770BFC51501006E
:10BB6400E409010038B50569044695F84030FBB98D
:10BB74002846FFF77DFF0022002305F1300002F084
:10BB8400D1FFAB6B4BB90B4D02F026FCA84209D197
:10BB940002F044FC0022084B1A702069BDE83840CA
:10BBA400FFF788BF002140F2676003F0A5FAEBE7D6
:10BBB40038BD00BF0000AD0B53850020F8B5066901
:10BBC400054696F84040D4B93046FFF751FF0D4F73
:10BBD40006F1300002F086FF3B785BB932460A4931
:10BBE400686802F0C3FAFFF729FFB0FA80F304464D
:10BBF4005B093B702869FFF75DFF2046F8BD002410
:10BC0400FBE700BF5385002021FF00002DE9F04F22
:10BC1400002906461546D0F804A087B005DBDAF8FB
:10BC240018308A189A42884611D9464BCDE9031533
:10BC34000293002301221846CDE90033424904F05F
:10BC440073F96FF01504204607B0BDE8F08FC1F317
:10BC54000B02002DF5D0C5F30B031343F1D1FFF70D
:10BC6400ADFF044660BB306904F06DF921463046EF
:10BC740004F06FF9044600BB3069FFF7F9FEDFF802
:10BC8400CCB0DAF81830AB421ED104F07EFBA946E2
:10BC9400074639463069FFF7FFFE5F4540D1B5EBF3
:10BCA4000905C844EDD13069FFF704FF012130468E
:10BCB40004F04FF9002C08BF0446306902F012FF6B
:10BCC4003046FFF74FFFBEE7B5F5803F0AD31FFAB2
:10BCD40088F353B94146012002F0EEFB4FF480395A
:10BCE4000746D6E7B5F5805F09D3C8F30B0030B932
:10BCF400414602F0E1FB4FF480590746C9E7144B73
:10BD040001220293002310491846CDE90033CDE9FE
:10BD1400038504F009F90F493069FFF7BDFE0D4FA3
:10BD24000D4B012202930023CDE903851846CDE98A
:10BD34000033054904F0F8F83846FFF77FFE04465F
:10BD4400B1E700BFE8150100E40901000000AD0BF4
:10BD5400321601000400AD0B501601002DE9F0412C
:10BD6400436890B01E6A0546002130460DAA04F0CF
:10BD7400E5F9041E4BDB0D9B32681979186800F055
:10BD840063FD041E43DB0127002201212B20FEF763
:10BD940089FE604C6E682A693046C4F8B8755E49FD
:10BDA40002F0E4F90223C4F8B835FFF747FE041E95
:10BDB4002DDB0022AB2328460DA9CDE90D220F92DD
:10BDC4008DF83430FFF782FE041E20DB232004F0BC
:10BDD400F6FBF37A023BBB421DD996F80A80A8F120
:10BDE4000308B8458CBF4FF000084FF001082846FF
:10BDF40004F0C4F8041E10DA484B01220293002315
:10BE040047491846CDE90033039404F08DF82046E1
:10BE140010B0BDE8F081B846E9E7E2B2C4F380149B
:10BE2400A0450AAE0BAF2FD0002382F04002ADF83C
:10BE340028308DF82820012228460DA9CDE90C23AD
:10BE44000B960F938DF834200E97FFF73FFE041ED8
:10BE540013D0DCDA334A344B3149B8F1000F18BF40
:10BE64001346CDE90334314B0122029300231846D3
:10BE7400CDE9003304F058F8C9E7284604F07EF809
:10BE8400041EE7DBE307F8D42846FFF76BFE032420
:10BE94000023CDE90C430E939F2328460B968DF87F
:10BEA40034300F97FFF78AFE024628B12846FFF781
:10BEB40059FE6FF01204AAE728460DA9FFF706FE03
:10BEC40007462846FFF74EFE002FF2D16D68224642
:10BED400314605F11C0003F036FF0446002896D0D5
:10BEE400AB7F012208936B7F384607932B7F0C4965
:10BEF40006939DF82A30009705939DF82930049302
:10BF04009DF8283003930A4BCDE901733B4604F0B6
:10BF14000BF8CEE70050004021FF00007816010026
:10BF2400E40901006E160100721601008816010072
:10BF3400991601002DE9F04705460F461E46904626
:10BF440088B0CAB1C3B1042B01D99A0714D1BB0775
:10BF540012D1002F6A6803DB9269BB19934211D98D
:10BF64003F4B012202930023CDE903761846CDE925
:10BF740000333C4903F0D8FF6FF01504204608B0A5
:10BF8400BDE8F0872846FFF719FE044600285FD174
:10BF9400286903F0D8FF2146284603F0DAFF044657
:10BFA4002869FFF765FD002C40D1032E1CD83A46C2
:10BFB400042107A804F0E6F9044601462869FFF7BE
:10BFC4006BFD294B9C4231D13246414607A803F010
:10BFD400E1FE3A46042107A804F0D1F904460146DB
:10BFE4002869FFF759FD21E008F06043B3F1005FD1
:10BFF40032D0DFF874A0042EB14628BF4FF00409F4
:10C0040041464A4607A803F0C5FE3A46042107A85C
:10C0140004F0B5F9044601462869FFF73DFD54458F
:10C0240004D1B6EB0906C8444F44E4D12869FFF7AC
:10C0340041FD0121284603F08CFF0646286902F0E1
:10C0440051FD002C14BF20463046FFF7F7FC044690
:10C054002846FFF787FD91E73A4631464046BBE75D
:10C06400CB160100E40901000000AD0B2DE9F04FEF
:10C0740081460E461C4690468BB0AAB1002B00F0B8
:10C084009E800029426803DB9269CB18934211D940
:10C094004C4B012202930023CDE903641846CDE9F9
:10C0A4000033494903F040FF6FF0150528460BB0F3
:10C0B400BDE8F08FFFF782FD054600287BD175426D
:10C0C40005F00305D9F81000FFF7D2FCA54228BFFC
:10C0D4002546D8F1000303F0030308F0030758BF13
:10C0E4005F427F4207F00307A74228BF2746631B2E
:10C0F400E41B24F0030423F0030AA245C8BFA246AC
:10C1040003F0030BC8BFA3EB040BBAF1000F19D063
:10C1140008EB0703721951461846079304F032F9E5
:10C1240004460146D9F81000FFF7B6FC274A9442AA
:10C1340039D1BD4206D0079B5246194608EB05008B
:10C1440003F011FEADB1C5F104070421F21B08A8E8
:10C1540004F018F904460146D9F81000FFF79CFCD6
:10C164001A4B9C421FD108AB2A464046D91903F00A
:10C1740011FEBBF1000F15D072190821524408A812
:10C1840004F000F904460146D9F81000FFF784FCD6
:10C194000E4B9C4207D10AEB05005A4608A94044BD
:10C1A40003F0F8FD094CD9F81000FFF783FC204692
:10C1B400FFF744FC05464846FFF7D4FC76E71D46E6
:10C1C40074E700BF15170100E40901000000AD0B7E
:10C1D400024B0B6001231360704700BF08840020EA
:10C1E40000487047B80B010070B50C4686B019467C
:10C1F40020461D46164603F0DCFE034668B90F4A86
:10C204000090CDE90102CDE9034501220C4903F078
:10C21400E1FE6FF0150006B070BD65B1B4F5004FD6
:10C224002A462146304604DA06B0BDE8704003F0E1
:10C2340010BB03F0AFFD0020EDE700BF7417010051
:10C244008C09010010B501220648114604F0DFF8FC
:10C2540004F08FF8044C206004F088F8606000203B
:10C2640010BD00BF1084002008840020F0B587B002
:10C274000E46144604F07AF821460546304603F08B
:10C2840098FE3746034688B3B6FBF5F305FB136304
:10C2940023B9B4FBF5F305FB134373B1184B012227
:10C2A400029300231846CDE90364CDE90033154910
:10C2B40003F090FE6FF0150002E0A54202D90020C1
:10C2C40007B0F0BD4FF0FF324FF0FF330E4802F0DD
:10C2D40029FC04F04BF80546384601F009FE641BBE
:10C2E4002F44F9D1084802F0FDFBE8E7074ACDE9FD
:10C2F4000364CDE90102034901220090D8E700BF9D
:10C30400911701008C0901001084002074170100AA
:10C31400F0B50E4687B0194630461C46174603F062
:10C3240048FE034668B91D4ACDE90364CDE901021C
:10C3340001221B49009003F04DFE6FF0150007B079
:10C34400F0BD46EA040515F003050AD0154B012299
:10C3540002930023CDE903641846CDE90033104964
:10C36400E9E7A4B14FF0FF324FF0FF330E4802F07B
:10C37400D9FB24F00304A54205EB060009D10B4ABE
:10C38400D2F80034DB07FBD5074802F0ABFB0020F2
:10C39400D5E7795901F0C8FD0435ECE774170100BD
:10C3A4008C090100B01701001084002000900340A4
:10C3B40030B5406801F01F04057BB2F5001F85B05D
:10C3C40044EA451405D1204601F0F6FB002005B0EF
:10C3D40030BD0025B2F5800FCDE9025514D1B3F17B
:10C3E400007F0CBF042305238DF80830002320466A
:10C3F400194602AA01F01EFA1F4B984238D10121B6
:10C40400204601F093FBE1E7B3F1C06F25D0B3F10F
:10C41400007F14BF012302238DF808308368CB40CA
:10C42400D907E3D4B2F1A07FE0D1144A14486109DA
:10C43400012908BF024604F01F03803352F8233059
:10C44400DB07D3D40DF107052946204601F01AFB7A
:10C454000C4B984203D00395C8E70323DCE7284636
:10C4640001F05EFB044B9842F5D06FF00B00AEE791
:10C474006FF01500ABE700BF0000AD0B0025844052
:10C48400002884400400AD0B10B501F039FB0446CC
:10C4940068B901F00DFB084B98420AD121460748C0
:10C4A40001F0EAFA224605212F20FEF7FBFA0020CC
:10C4B40010BD6FF00400FBE70000AD0BC5C4000025
:10C4C4004209034670B502D0012A17D070BD0D4E43
:10C4D400326951680029F9D0012503F01F030C6863
:10C4E4009D400029F2D08A682A4002D030464B6829
:10C4F40098472CB1236821461C46F2E7024EE7E731
:10C504002346F8E7740601005C0601002DE9FF41AB
:10C51400476801F01F053B7B144645EA43150E4668
:10C5240028460DF1030101F0ADFA14F4403F8046B2
:10C534000BD1284601F068FB3C4B984503D19DF88C
:10C54400030001F0E7FA00200CE000232846194616
:10C5540002AACDE9023301F06DF9344B984204D0BC
:10C564006FF0150004B0BDE8F081804503D19DF85B
:10C57400030001F0CFFAA30349D540F20633234068
:10C58400B3F5837F19D00CD8062B17D004D8ABB1E0
:10C59400022BE5D1042311E0B3F5807FE0D1012320
:10C5A4000CE040F20222934226D0B3F5407F25D01E
:10C5B400B3F5007FD4D1022300E007238DF80430C3
:10C5C40084F48033C3F30043E0068DF805304CBF98
:10C5D4000323C4F3401321038DF8063010D501233F
:10C5E4007A68B34093600022284601A901F0D0F98B
:10C5F4000E4B9842A7D0B3E70523DFE70323DDE71B
:10C60400620341BF01237A68B340D360EBE7E306DA
:10C614004FF000034CBF0324C4F340141A462846C9
:10C6240001A98DF8044001F005F9E1E70000AD0B24
:10C6340010B504460269A6B0C2F88000244900205F
:10C6440001F0E2FB002201212A20FEF72BFA6468A4
:10C654008422002105A803F0A8FB6368B3F5803F9A
:10C6640009D31C4B0222029300231B491846CDE92F
:10C67400003303F053FD2368B3F5803F09D3174B10
:10C6840002220293002314491846CDE9003303F033
:10C6940045FD00230120259305AA61680432D94091
:10C6A400C90744BF00FA03F142F8041C2168D940C9
:10C6B400C90748BF00FA03F103F1010348BFD1637E
:10C6C400102BEAD105A801F0B7FB002026B010BD5D
:10C6D40035C7000007180100BC0901003318010028
:10C6E40030B505460C4685B04AB10F4B0222029381
:10C6F40000230E491846CDE9003303F00FFD0F2C3B
:10C704000FD86B685B68E340DB070AD50123002080
:10C71400A400E4B204F1804404F52834236005B095
:10C7240030BD6FF01500FAE75F180100BC09010085
:10C734007FB5D1F880600F2804460D46736803D88E
:10C744001B68C340DB0709D4144B02220293002365
:10C7540013491846CDE9003303F0E0FCD5F88430E2
:10C76400E34013F0010308D10E4A1846CDE9013223
:10C774000B490222009303F0D1FC05EB840255F827
:10C78400245045B1002321463046AC46126C04B017
:10C79400BDE87040604704B070BD00BF7A18010066
:10C7A400BC0901009618010030B50F290C46056933
:10C7B40085B041D843681B68CB40DB073CD5D5F82E
:10C7C4008430CB4003F001031AB90BBB6FF0770040
:10C7D40030E0002BFAD155F8213043B9184A1846F5
:10C7E400CDE9013217490222009303F097FCD5F8F2
:10C7F400843013B92A20FEF725F90122D5F88430B4
:10C80400A2401343C5F88430E0B201F035FB0AE0DE
:10C81400C8B201F039FB0122D5F88430A24023EAE2
:10C824000203C5F88430D5F8843013B92A20FEF702
:10C8340017F9002005B030BD6FF01500FAE700BF0E
:10C84400B3180100BC0901004FF0010C2DE9F047B9
:10C854005B4E5C4F00EB8101814202D10020BDE8B8
:10C86400F087046804F07F03C4F343257F2B4FEA69
:10C87400144408BF4FF0FF33222C00F29D80DFE800
:10C8840004F0122328422B3E429B9B9B9B45729BA8
:10C894009B9B9B9B9B9B9B9B757D80839B9B9B8670
:10C8A4008C8F92959800C2F80C354FEA5318B8F162
:10C8B400010F14BFB646BE4603F01F040CFA04F47D
:10C8C400CEF80840012402E0C2F814350024A6463C
:10C8D40023E0C2F80835E8E70024C2F808354FEA37
:10C8E4005319B9F1010F14BFB046B84603F01F0E37
:10C8F4000CFA0EFEC8F80CE04FF0010E0DE0C2F881
:10C904000C350124EBE7C2F81035DFE7C2F808352F
:10C91400002DDBD100240625A64650F804AB03F015
:10C924001F090AF40058B8F1000F4FEA53131CBF53
:10C9340001244FF0000E012B0CBFB846B04608EBA3
:10C944008908D8F80032CAF3C11A03F0E0492B026F
:10C9540043EA8A0343EA0E0343EA440343EA09032E
:10C96400C8F8003278E7C2F80C35D1E7C2F8603570
:10C974000468C4F38034002CC3D096E7C2F864354D
:10C98400F6E7C2F86835F3E7C2F86C35F0E7C2F8A9
:10C99400243501244FF0000EBFE7C2F8283584E7A0
:10C9A400C2F83035F5E7C2F83435F2E7C2F8383565
:10C9B400EFE7C2F83C35ECE76FF085004FE700BFC6
:10C9C40000258440002884407FB50BAB0593039376
:10C9D400054B0122029300231846CDE90033FDF7ED
:10C9E4004FFC07B05DF804FBFC180100F0B54B796F
:10C9F400012B29D0032B24D110278B79032B20D191
:10CA0400CE790EB1012E1CD10A79012A1ED0022A38
:10CA140020D0B2B914460B684568B3F5164FD5F863
:10CA240000C06ED033D8B3F5165F6DD01CD8B3F503
:10CA3400966F6BD010D8B3F5967F6AD0B3F5167F96
:10CA44006AD06FF085005BE00027D6E74FF480746E
:10CA54000E22E0E70024FBE7B3F5166F5FD0B3F5D1
:10CA6400965FEED1384B3CE0B3F5E14F5AD007D88E
:10CA7400B3F5615F58D0B3F5964FE2D1334B30E054
:10CA840047F61225AB42DCD14FF4000329E0B3F59D
:10CA9400613F4BD013D8B3F5963F4AD009D84DF631
:10CAA400C025AB4247D0B3F5614FCAD14FF46B03F5
:10CAB40017E0B3F5E13FC4D14FF0EB7311E0B3F5E8
:10CAC400612F3BD008D8224DAB423AD0B3F5E12FC9
:10CAD400B7D14FF0E86304E01E4DAB42B1D14FF043
:10CAE40080530569CCF8243543683A431B683443C2
:10CAF4002243C3F86C252B1D03C983E803000020DF
:10CB0400F0BD4FF41D03ECE7134BEAE74FF49E230B
:10CB1400E7E74FF4A033E4E74FF41C33E1E74FF4C5
:10CB24001D23DEE70D4BDCE70D4BDAE74FF06C73AA
:10CB3400D7E70C4BD5E74FF46503D2E74FF07063AA
:10CB4400CFE74FF08063CCE700B0130000A04E00A5
:10CB540090D0030040420F000050270000C0750031
:10CB640000F03A0000903A012DE9F043804687B086
:10CB7400002201210820FDF795FF0820FDF762FF40
:10CB84000021D8F80470D8F810603D6805AAC5F8EB
:10CB94000015C6F80080D7F80C90484603F0CEFA8A
:10CBA400041E24DB059BD9F8002019791868FFF7C7
:10CBB4004BFE041E1BDB4046311DFFF717FF0446E6
:10CBC400A8B97B68990723D506F1180000F09EFDEB
:10CBD400234B98420FD0234B2046CDE901430094C8
:10CBE400234601222049FFF7EFFE6FF0040420469C
:10CBF40007B0BDE8F083337E43F00043C5F8A031AD
:10CC0400C5F88C300123327E9340184AC2F80435AB
:10CC14000823C5F800353B7A53B9C5F81031D5F867
:10CC240010317369C5F834350123C5F838352B60E4
:10CC34007B689A075CBF4FF48073C5F804337B6844
:10CC4400DB0644BF4FF48003C5F804333369C5F8E9
:10CC540044350023C5F848350123AB60EB60C6E7D3
:10CC64000000AD0BFC180100FC090100007001403C
:10CC7400F8B504460D46076903F0ABFBB0B92E4B7B
:10CC84001B789BB16426606803F08EFA00BB012018
:10CC940003F00DFB013EF6D10021212002F02CFA15
:10CCA400F0E786F31188BFF36F8FF5E74FF02003A9
:10CCB400EFF3118683F31288BFF36F8F60683146F8
:10CCC40003F072FA90B986F31188BFF36F8FEDE722
:10CCD4004FF02003EFF3118683F31288BFF36F8FB5
:10CCE4006068314603F060FA0028DAD03B691D70B1
:10CCF400626838691368C3F844050120C3F848051D
:10CD04000020C3F82001D3F82051C3F85801526819
:10CD1400D3F85801D20608D5082062681268C2F810
:10CD240000054FF48002C3F8042301229A6081F3C2
:10CD34001188BFF36F8FF8BD56850020012383400F
:10CD440070B5DC430B4AD2E8EF1F01EA0405C2E8E0
:10CD5400E65F002EF7D14FF4803282400648C0F8D7
:10CD64000823BFF35F8FBFF36F8F0B4214BF012003
:10CD7400002070BDC88400200050014070B40E49EA
:10CD840022F07F46D1E90034D01AC31844F10004DC
:10CD9400C1E90034A6F50013B3F5400F09D2074BDF
:10CDA4001B681A0A1B069C19054B42F10005C3E9CE
:10CDB400004570BC02F0F6BA78810020CC840020D3
:10CDC40080810020D9B101230D4A8340D2E8EFCFFE
:10CDD4004CEA030CC2E8E1CF0029F7D14FF48033C9
:10CDE400084A8340C2F80433074BD3E8AF3FC3403B
:10CDF400DB0742BF4FF40012044BC3F80021704715
:10CE0400C884002000500140C084002000E100E0FC
:10CE1400C3B202489B001844704700BF4051014010
:10CE2400024B00F5A87053F82000704700500140F1
:10CE34000D4B1868010A0006BFF35F8F0B4BD3F844
:10CE44000435181841F10001B3F5801F0AD2084BCC
:10CE5400D3E90023904271EB030303D210F18070F5
:10CE640041F10001704700BFCC8400200050014014
:10CE7400808100202DE9F74F16461F460446FFF730
:10CE84005DFF0090FFF7D4FFB04271EB070350D26F
:10CE9400384B301A67EB0101984271F1000165D2F9
:10CEA400354B03EB0413D3E902239F4208BF964298
:10CEB40049D04FF48039314909FA04F9204626F063
:10CEC4007F4BC1F8489303F0B9F94FF0030A584671
:10CED40004F15005AD00ADB205F1804504F5A87329
:10CEE400274A05F5A8350193DDF804C020F07F43F7
:10CEF40041F82C30C1F84493D1F80485A0EB080024
:10CF0400033820F07F4090421DD9286860B1D1F8E1
:10CF14000485A8EB0B0020F07F40B0F5000F12D978
:10CF2400204603F08BF9164A0AEB08000AF1010ABD
:10CF3400DAE70123134AA340D2E8EF0F1843C2E80B
:10CF4400E10F0029F8D100250B490C98230101EBCE
:10CF54000412C850C2E902670D9B53602046009931
:10CF6400FFF730FF284603B0BDE8F08F6FF01505DA
:10CF7400F4E700BF01008000588100200050014008
:10CF8400FDFF7F00C084002073B54FF4803200257C
:10CF94004FF0FF304FF0FF311C4C1D4B0226C4F8FC
:10CFA4000833C4F848331B4BC4F80855C3E90201DD
:10CFB400C4F80423C3E906014FF400334FF400120C
:10CFC400C4F80433144B0121C4F804631520C3F8D6
:10CFD40080212A46FDF766FD1520FDF733FD012368
:10CFE4000322A36023600D4B28461A600C4B0D4AA4
:10CFF4001E600D4B019500930023FFF73BFF304665
:10D00400FEF778FC284602B070BD00BF0050014016
:10D0140003000F005881002000E100E0C8840020D4
:10D02400C4840020FFFF7F0081CD00002DE9F04F74
:10D03400394B85B0D3F8042392070BD5D3F80421D8
:10D0440042B10022C3F80421344AD3F804311368EE
:10D0540001331360324D0024A8464FF480362E4F1E
:10D06400D7F8043306FA04F919EA030F2ED0012382
:10D07400A340DB432B49D1E8EF2F02EA0300C1E8C8
:10D08400EC0FBCF1000FF6D122FA04F3DB0703D452
:10D09400254B53F82430CBB1204603F0CFF8FFF7EB
:10D0A400C7FE4FF02002EFF3118382F31288BFF31F
:10D0B4006F8F08EB041CDCE902AB504571EB0B01EC
:10D0C40002930AD283F31188BFF36F8F103514B122
:10D0D40005B0BDE8F08F0124C2E70020D5E90013B4
:10D0E4004FF0FF3203934FF0FF3328600A48CCE936
:10D0F4000223C0F84893204603F0A0F8029B83F370
:10D104001188BFF36F8F0029E0D0039B5246009330
:10D114005B468847DAE700BF00500140CC8400201A
:10D1240058810020C08400204051014070B5012482
:10D134000C4B186890B1B0FA80F0C0F11F0004FAEB
:10D1440000F1C943D3E8EF2F02EA0105C3E8E65F23
:10D15400002EF7D1C240D207EBD570BD6FF00B00A3
:10D16400FBE700BFC48400200123054A8340D2E8C2
:10D17400EF0F1843C2E8E10F0029F8D1704700BF50
:10D18400C4840020431C13B521D0012821DD124A98
:10D19400124B9042D4BF04461C46FFF749FE104B85
:10D1A4000E49D3E90023801AB0F5000F28BF0024EC
:10D1B40004448C4228BF0C4600200A49A21801905E
:10D1C400009143F10003FFF755FE02B010BD034C7C
:10D1D400E3E70124E1E700BFFEFF7F00FFFF7F00DC
:10D1E4007881002081CD000008B5FFF721FE024BB5
:10D1F4001B68C01A08BD00BF788100207FB50BAB47
:10D2040005930393054B0122029300231846CDE9AD
:10D214000033FDF735F807B05DF804FB351901005C
:10D224001FB50024FCF7BCFF064B204602930122E5
:10D234002346CDE900440449FFF7E0FF2046FEF70A
:10D2440043F800BF35190100840901002DE9F041BC
:10D254001F46154B044693F800800D461646A2B0AF
:10D26400B8F1000F15D1684602F01DFD3A4631466B
:10D274002846289BA0470446684602F015FDB8F1ED
:10D28400000F02D0094801F0F1FB204622B0BDE8AE
:10D29400F0814FF0FF324FF0FF33044801F06CFB94
:10D2A4000028E0D01F24F0E75685002040810020AC
:10D2B400002300B589B0CDE9063303AB04930423FE
:10D2C40003900593A9B10B6806934B680793022357
:10D2D400111E18BF01210848CDE9002140F2F531A3
:10D2E40004AA00F02BF80028B8BF012009B05DF8AB
:10D2F40004FB0123ECE700BF0501004070B53026B4
:10D3040092B006AB05460C4632460021184602F0A0
:10D314004CFDCDE90454CDE9020654B1012304AA1D
:10D32400009200210448019302AA00F007F812B009
:10D3340070BD2046FBE700BF0001004030B401F59A
:10D344000045B5F5803F039C0DD243EA0405FF2D4B
:10D3540009D844EA0324134644EA0142014630BC96
:10D364000348FFF773BF6FF0800030BC704700BF05
:10D37400117C000070B501250268B2FA82F3C3F192
:10D384001F03DBB205FA03F422EA0404D0E8EF6FCA
:10D39400964204D1C0E8EC4FBCF1000FF6D1EBD1BA
:10D3A40001480B7070BD00BF0000AD0B10B50368E1
:10D3B400CB40DB0710D401238B40026843EA02010F
:10D3C400D0E8EF4F944204D1C0E8EC1FBCF1000F49
:10D3D400F6D1F2D1014810BD0148FCE70000AD0BC5
:10D3E4000400AD0B73B5032800F2A080DFE800F061
:10D3F400021825320222594BC3F808230022C3F82D
:10D404000421D3F804210122DA60002401238DF8D9
:10D414000730032800F28A80DFE800F0296573945E
:10D42400012200214D4B0DF10704C3F80823C3F872
:10D434000011D3F800115A60E8E74FF40072474B2B
:10D44400C3F808230022C3F82421D3F8242101229D
:10D454005A62DAE74FF48072404BC3F80823002283
:10D46400C3F82021D3F820210122DA61CDE742F26A
:10D4740010753A4E6CB3D6F8183403F003032370D6
:10D48400D6F81834D90351D59DF8070001284DD199
:10D4940002F00DFF013DEDD148E09DF807000128A1
:10D4A40044D102F004FF013D4FD13FE09DF8070055
:10D4B40001283BD102F0FBFE013D37D0BCB1D6F8C8
:10D4C4000C3403F001032370D6F80C34DB032DD5A0
:10D4D400ECE7D6F81834DA0328D5012002F0E7FE89
:10D4E400013DF6D122E042F210751C4EE6E7D6F873
:10D4F4000C34D8031AD5012002F0D9FE013DF6D12F
:10D5040014E042F21075154E94B1D6F85C3403F071
:10D5140001032370D6F85C34D90307D59DF80700BE
:10D52400012803D102F0C3FE013DEDD102B070BD6C
:10D53400D6F85C34DA03F9D5012002F0B8FE013DD7
:10D54400F6D1F3E742F21075044ED6F85434DB03F7
:10D55400ECD5002CA1D10120A3E700BF005000406E
:10D56400044B1A7922B9012218601A7102487047D3
:10D5740002487047D08400200000AD0B0C00AD0BB6
:10D5840008B50520FDF780FA10B90520FDF75AFA11
:10D594000122044BC3F81825C3F81425C3F88025C9
:10D5A40008BD00BF0050004008B5032818D8DFE8C4
:10D5B40000F002303B48294AD2F81834D2F8181443
:10D5C400C9030ED4D2F81434DB0713D5D2F81C34B3
:10D5D40003F00303013B012B09D80223C2F80433EF
:10D5E40008BD03F00303022B05D0012B02D0002059
:10D5F400FFF7F8FE0123194AC2F818350023C2F8D0
:10D604000431D2F804310223C2F8043301239360B5
:10D61400E6E70022114BC3F80021D3F800210122D0
:10D62400C3F804231A60DBE700220C4BC3F824215F
:10D63400D3F824214FF40072C3F8042301221A62A0
:10D64400CEE70022054BC3F82021D3F820214FF464
:10D654008072C3F8042301229A61C1E7005000409C
:10D6640010B5284BD3F8002152B10020C3F80001B3
:10D67400D3F800210122C3F80823234B1B689847E1
:10D68400204BD3F804218AB10022C3F80421D3F833
:10D694000421D3F81824D3F8181402F00302012A41
:10D6A4004FF0020126D1C3F818159A60154BD3F830
:10D6B400202162B10022C3F82021D3F820214FF4A5
:10D6C4008072C3F80823104B04201B6898470D4B45
:10D6D400D3F82421AAB10022C3F82421D3F82421A9
:10D6E4004FF40072C3F80823074B0520BDE810402F
:10D6F4001B681847C3F80813034B01201B6898479D
:10D70400D4E710BD00500040D084002001460148F9
:10D71400FFF730BEA48000200123044A8340014661
:10D72400C2F808350248FFF741BE00BF007001404F
:10D73400A4800020036803F01F020260034A044827
:10D744005B09012B18BF1046704700BF00258440B9
:10D7540000288440034B083033F81000C0F3401015
:10D76400704700BFA880002070B50D4C00F108037D
:10D7740034F813300546DA050E4607D5C3F34323C0
:10D7840004EBC302526854F833309847A3682BB1B2
:10D7940031462846E268BDE87040184770BD00BFB6
:10D7A400A880002010B4124A083032F81030D9058D
:10D7B4001BD5C3F3432123F4F85322F8103000207F
:10D7C40002F10E0434F8023F13F4807F03D0C3F354
:10D7D4004323994209D001303028F3D1002342F881
:10D7E4003130044810BCFFF7E1BD10BC704700BFE6
:10D7F400A88000201C81002038B50246FFF7AAFF4C
:10D804000B4C02F1080560B1002134F815305B0BB4
:10D814009B0003F1804303F53C33C3F81015C3F8B0
:10D8240010151046FFF7BEFF002324F8153038BD4D
:10D83400A88000202DE9FF41044690461D4601B30F
:10D844004F4E00F1080736F817309B0702D5FFF753
:10D8540081FF28BB00232046CDE900338DF80E302C
:10D864008DF80F300DF10F020B460DF10E0102F091
:10D8740022FD36F8173023F0020343F0010326F8A3
:10D884001730B8F1000F2DD03D4E04F1080736F8DB
:10D89400171098F800008A07D8F8043002D5CBB1E5
:10D8A400384821E021F02001C904C90C26F81710DA
:10D8B40083B10328F4D8D8F8043093F800C0624642
:10D8C400920002F1804202F53C3280B9C2F81005A0
:10D8D400C2F8100536F8173023F01C0343EA80031E
:10D8E40026F817301DBB284804B0BDE8F081D2F8F3
:10D8F400103541EA4C3123F00303C2F81035D2F855
:10D90400103541F0200123F44F3323F44073C2F85F
:10D9140010352302D2F810E503F47C5343EA0043A4
:10D9240043EA0E03C2F8103526F81710D2E7204652
:10D93400D5E90067FFF736FF002ED4D0104DD5E9A6
:10D944000023964201D19F4218D010480DF10F01D7
:10D95400FFF710FD0C4B9842C6D19DF80F2005EB44
:10D96400C20308345F6035F8143045F8326043EA86
:10D97400422343F4807325F81430B4E70022EEE721
:10D98400A88000200400AD0B0000AD0B1C8100201A
:10D99400F0B50446154685B019B3344E00F10807B6
:10D9A40036F81720930703D4FFF7D4FE00285AD182
:10D9B40012F01C0F02D04B78012B54D001238DF8A8
:10D9C4000F3000234A1CCDE9001320468B1C0DF1B7
:10D9D4000F0102F070FC36F8173043F0030326F809
:10D9E400173015B9224805B0F0BD204E04F10807E0
:10D9F40036F81700830736D595F800C00023614632
:10DA040020F02000890001F18041C00401F53C317F
:10DA1400C00CC1F8103526F81700C1F810356A7823
:10DA2400002ADFD0D1F81035AD7823F4991323F40C
:10DA3400F853C1F81035D1F810E5230203F47C53F0
:10DA4400120402F4403243EA0E0313432A0502F49B
:10DA5400801240EA4C30134340F02000C1F81035E6
:10DA640026F81700BEE70348BDE700BFA8800020E2
:10DA74000000AD0B0400AD0B014BC3E9020170477C
:10DA8400A880002008B50246FFF764FE38B1054BB4
:10DA9400083233F8123004485B0B0B7008BD03489E
:10DAA400FCE700BFA88000200000AD0B0400AD0B14
:10DAB40038B50F4C94F87850BDB96022294604F16A
:10DAC400100002F072F92F20FCF7BCFF094B0A4842
:10DAD400C3F87C51D3F87C214FF00042C3F80423EF
